{
	"inheritance.sol": {
		"Book2": {
			"abi": [
				{
					"inputs": [],
					"name": "getDimenions",
					"outputs": [
						{
							"internalType": "uint256",
							"name": "",
							"type": "uint256"
						},
						{
							"internalType": "uint256",
							"name": "",
							"type": "uint256"
						},
						{
							"internalType": "uint256",
							"name": "",
							"type": "uint256"
						}
					],
					"stateMutability": "view",
					"type": "function"
				},
				{
					"inputs": [],
					"name": "getValue",
					"outputs": [
						{
							"internalType": "bool",
							"name": "",
							"type": "bool"
						}
					],
					"stateMutability": "view",
					"type": "function"
				},
				{
					"inputs": [
						{
							"internalType": "uint256",
							"name": "_length",
							"type": "uint256"
						},
						{
							"internalType": "uint256",
							"name": "_breadth",
							"type": "uint256"
						},
						{
							"internalType": "uint256",
							"name": "_height",
							"type": "uint256"
						}
					],
					"name": "setDimensions",
					"outputs": [],
					"stateMutability": "nonpayable",
					"type": "function"
				},
				{
					"inputs": [
						{
							"internalType": "bool",
							"name": "_value",
							"type": "bool"
						}
					],
					"name": "setValue",
					"outputs": [],
					"stateMutability": "nonpayable",
					"type": "function"
				}
			],
			"devdoc": {
				"kind": "dev",
				"methods": {},
				"version": 1
			},
			"evm": {
				"assembly": "    /* \"inheritance.sol\":437:644  contract Book2 is Book{... */\n  mstore(0x40, 0x80)\n  callvalue\n  dup1\n  iszero\n  tag_1\n  jumpi\n  0x00\n  dup1\n  revert\ntag_1:\n  pop\n  dataSize(sub_0)\n  dup1\n  dataOffset(sub_0)\n  0x00\n  codecopy\n  0x00\n  return\nstop\n\nsub_0: assembly {\n        /* \"inheritance.sol\":437:644  contract Book2 is Book{... */\n      mstore(0x40, 0x80)\n      callvalue\n      dup1\n      iszero\n      tag_1\n      jumpi\n      0x00\n      dup1\n      revert\n    tag_1:\n      pop\n      jumpi(tag_2, lt(calldatasize, 0x04))\n      shr(0xe0, calldataload(0x00))\n      dup1\n      0x17eb564f\n      eq\n      tag_3\n      jumpi\n      dup1\n      0x20965255\n      eq\n      tag_4\n      jumpi\n      dup1\n      0x7c1e0d83\n      eq\n      tag_5\n      jumpi\n      dup1\n      0xabcae2ca\n      eq\n      tag_6\n      jumpi\n    tag_2:\n      0x00\n      dup1\n      revert\n        /* \"inheritance.sol\":300:411  function getDimenions() view public returns(uint, uint, uint){... */\n    tag_3:\n      tag_7\n      tag_8\n      jump\t// in\n    tag_7:\n      mload(0x40)\n      tag_9\n      swap4\n      swap3\n      swap2\n      swap1\n      tag_10\n      jump\t// in\n    tag_9:\n      mload(0x40)\n      dup1\n      swap2\n      sub\n      swap1\n      return\n        /* \"inheritance.sol\":565:641  function getValue() view public returns(bool){... */\n    tag_4:\n      tag_11\n      tag_12\n      jump\t// in\n    tag_11:\n      mload(0x40)\n      tag_13\n      swap2\n      swap1\n      tag_14\n      jump\t// in\n    tag_13:\n      mload(0x40)\n      dup1\n      swap2\n      sub\n      swap1\n      return\n        /* \"inheritance.sol\":487:557  function setValue(bool _value) public{... */\n    tag_5:\n      tag_15\n      0x04\n      dup1\n      calldatasize\n      sub\n      dup2\n      add\n      swap1\n      tag_16\n      swap2\n      swap1\n      tag_17\n      jump\t// in\n    tag_16:\n      tag_18\n      jump\t// in\n    tag_15:\n      stop\n        /* \"inheritance.sol\":127:292  function setDimensions(uint _length, uint _breadth, uint _height) public{... */\n    tag_6:\n      tag_19\n      0x04\n      dup1\n      calldatasize\n      sub\n      dup2\n      add\n      swap1\n      tag_20\n      swap2\n      swap1\n      tag_21\n      jump\t// in\n    tag_20:\n      tag_22\n      jump\t// in\n    tag_19:\n      stop\n        /* \"inheritance.sol\":300:411  function getDimenions() view public returns(uint, uint, uint){... */\n    tag_8:\n        /* \"inheritance.sol\":344:348  uint */\n      0x00\n        /* \"inheritance.sol\":350:354  uint */\n      dup1\n        /* \"inheritance.sol\":356:360  uint */\n      0x00\n        /* \"inheritance.sol\":379:385  length */\n      dup1\n      sload\n        /* \"inheritance.sol\":387:394  breadth */\n      sload(0x01)\n        /* \"inheritance.sol\":396:402  height */\n      sload(0x02)\n        /* \"inheritance.sol\":372:403  return(length, breadth, height) */\n      swap3\n      pop\n      swap3\n      pop\n      swap3\n      pop\n        /* \"inheritance.sol\":300:411  function getDimenions() view public returns(uint, uint, uint){... */\n      swap1\n      swap2\n      swap3\n      jump\t// out\n        /* \"inheritance.sol\":565:641  function getValue() view public returns(bool){... */\n    tag_12:\n        /* \"inheritance.sol\":605:609  bool */\n      0x00\n        /* \"inheritance.sol\":628:633  value */\n      0x03\n      0x00\n      swap1\n      sload\n      swap1\n      0x0100\n      exp\n      swap1\n      div\n      0xff\n      and\n        /* \"inheritance.sol\":621:633  return value */\n      swap1\n      pop\n        /* \"inheritance.sol\":565:641  function getValue() view public returns(bool){... */\n      swap1\n      jump\t// out\n        /* \"inheritance.sol\":487:557  function setValue(bool _value) public{... */\n    tag_18:\n        /* \"inheritance.sol\":543:549  _value */\n      dup1\n        /* \"inheritance.sol\":535:540  value */\n      0x03\n      0x00\n        /* \"inheritance.sol\":535:549  value = _value */\n      0x0100\n      exp\n      dup2\n      sload\n      dup2\n      0xff\n      mul\n      not\n      and\n      swap1\n      dup4\n      iszero\n      iszero\n      mul\n      or\n      swap1\n      sstore\n      pop\n        /* \"inheritance.sol\":487:557  function setValue(bool _value) public{... */\n      pop\n      jump\t// out\n        /* \"inheritance.sol\":127:292  function setDimensions(uint _length, uint _breadth, uint _height) public{... */\n    tag_22:\n        /* \"inheritance.sol\":221:228  _length */\n      dup3\n        /* \"inheritance.sol\":212:218  length */\n      0x00\n        /* \"inheritance.sol\":212:228  length = _length */\n      dup2\n      swap1\n      sstore\n      pop\n        /* \"inheritance.sol\":249:257  _breadth */\n      dup2\n        /* \"inheritance.sol\":239:246  breadth */\n      0x01\n        /* \"inheritance.sol\":239:257  breadth = _breadth */\n      dup2\n      swap1\n      sstore\n      pop\n        /* \"inheritance.sol\":277:284  _height */\n      dup1\n        /* \"inheritance.sol\":268:274  height */\n      0x02\n        /* \"inheritance.sol\":268:284  height = _height */\n      dup2\n      swap1\n      sstore\n      pop\n        /* \"inheritance.sol\":127:292  function setDimensions(uint _length, uint _breadth, uint _height) public{... */\n      pop\n      pop\n      pop\n      jump\t// out\n        /* \"#utility.yul\":7:84   */\n    tag_27:\n        /* \"#utility.yul\":44:51   */\n      0x00\n        /* \"#utility.yul\":73:78   */\n      dup2\n        /* \"#utility.yul\":62:78   */\n      swap1\n      pop\n        /* \"#utility.yul\":7:84   */\n      swap2\n      swap1\n      pop\n      jump\t// out\n        /* \"#utility.yul\":90:208   */\n    tag_28:\n        /* \"#utility.yul\":177:201   */\n      tag_41\n        /* \"#utility.yul\":195:200   */\n      dup2\n        /* \"#utility.yul\":177:201   */\n      tag_27\n      jump\t// in\n    tag_41:\n        /* \"#utility.yul\":172:175   */\n      dup3\n        /* \"#utility.yul\":165:202   */\n      mstore\n        /* \"#utility.yul\":90:208   */\n      pop\n      pop\n      jump\t// out\n        /* \"#utility.yul\":214:656   */\n    tag_10:\n        /* \"#utility.yul\":363:367   */\n      0x00\n        /* \"#utility.yul\":401:403   */\n      0x60\n        /* \"#utility.yul\":390:399   */\n      dup3\n        /* \"#utility.yul\":386:404   */\n      add\n        /* \"#utility.yul\":378:404   */\n      swap1\n      pop\n        /* \"#utility.yul\":414:485   */\n      tag_43\n        /* \"#utility.yul\":482:483   */\n      0x00\n        /* \"#utility.yul\":471:480   */\n      dup4\n        /* \"#utility.yul\":467:484   */\n      add\n        /* \"#utility.yul\":458:464   */\n      dup7\n        /* \"#utility.yul\":414:485   */\n      tag_28\n      jump\t// in\n    tag_43:\n        /* \"#utility.yul\":495:567   */\n      tag_44\n        /* \"#utility.yul\":563:565   */\n      0x20\n        /* \"#utility.yul\":552:561   */\n      dup4\n        /* \"#utility.yul\":548:566   */\n      add\n        /* \"#utility.yul\":539:545   */\n      dup6\n        /* \"#utility.yul\":495:567   */\n      tag_28\n      jump\t// in\n    tag_44:\n        /* \"#utility.yul\":577:649   */\n      tag_45\n        /* \"#utility.yul\":645:647   */\n      0x40\n        /* \"#utility.yul\":634:643   */\n      dup4\n        /* \"#utility.yul\":630:648   */\n      add\n        /* \"#utility.yul\":621:627   */\n      dup5\n        /* \"#utility.yul\":577:649   */\n      tag_28\n      jump\t// in\n    tag_45:\n        /* \"#utility.yul\":214:656   */\n      swap5\n      swap4\n      pop\n      pop\n      pop\n      pop\n      jump\t// out\n        /* \"#utility.yul\":662:752   */\n    tag_29:\n        /* \"#utility.yul\":696:703   */\n      0x00\n        /* \"#utility.yul\":739:744   */\n      dup2\n        /* \"#utility.yul\":732:745   */\n      iszero\n        /* \"#utility.yul\":725:746   */\n      iszero\n        /* \"#utility.yul\":714:746   */\n      swap1\n      pop\n        /* \"#utility.yul\":662:752   */\n      swap2\n      swap1\n      pop\n      jump\t// out\n        /* \"#utility.yul\":758:867   */\n    tag_30:\n        /* \"#utility.yul\":839:860   */\n      tag_48\n        /* \"#utility.yul\":854:859   */\n      dup2\n        /* \"#utility.yul\":839:860   */\n      tag_29\n      jump\t// in\n    tag_48:\n        /* \"#utility.yul\":834:837   */\n      dup3\n        /* \"#utility.yul\":827:861   */\n      mstore\n        /* \"#utility.yul\":758:867   */\n      pop\n      pop\n      jump\t// out\n        /* \"#utility.yul\":873:1083   */\n    tag_14:\n        /* \"#utility.yul\":960:964   */\n      0x00\n        /* \"#utility.yul\":998:1000   */\n      0x20\n        /* \"#utility.yul\":987:996   */\n      dup3\n        /* \"#utility.yul\":983:1001   */\n      add\n        /* \"#utility.yul\":975:1001   */\n      swap1\n      pop\n        /* \"#utility.yul\":1011:1076   */\n      tag_50\n        /* \"#utility.yul\":1073:1074   */\n      0x00\n        /* \"#utility.yul\":1062:1071   */\n      dup4\n        /* \"#utility.yul\":1058:1075   */\n      add\n        /* \"#utility.yul\":1049:1055   */\n      dup5\n        /* \"#utility.yul\":1011:1076   */\n      tag_30\n      jump\t// in\n    tag_50:\n        /* \"#utility.yul\":873:1083   */\n      swap3\n      swap2\n      pop\n      pop\n      jump\t// out\n        /* \"#utility.yul\":1170:1287   */\n    tag_32:\n        /* \"#utility.yul\":1279:1280   */\n      0x00\n        /* \"#utility.yul\":1276:1277   */\n      dup1\n        /* \"#utility.yul\":1269:1281   */\n      revert\n        /* \"#utility.yul\":1416:1532   */\n    tag_34:\n        /* \"#utility.yul\":1486:1507   */\n      tag_55\n        /* \"#utility.yul\":1501:1506   */\n      dup2\n        /* \"#utility.yul\":1486:1507   */\n      tag_29\n      jump\t// in\n    tag_55:\n        /* \"#utility.yul\":1479:1484   */\n      dup2\n        /* \"#utility.yul\":1476:1508   */\n      eq\n        /* \"#utility.yul\":1466:1526   */\n      tag_56\n      jumpi\n        /* \"#utility.yul\":1522:1523   */\n      0x00\n        /* \"#utility.yul\":1519:1520   */\n      dup1\n        /* \"#utility.yul\":1512:1524   */\n      revert\n        /* \"#utility.yul\":1466:1526   */\n    tag_56:\n        /* \"#utility.yul\":1416:1532   */\n      pop\n      jump\t// out\n        /* \"#utility.yul\":1538:1671   */\n    tag_35:\n        /* \"#utility.yul\":1581:1586   */\n      0x00\n        /* \"#utility.yul\":1619:1625   */\n      dup2\n        /* \"#utility.yul\":1606:1626   */\n      calldataload\n        /* \"#utility.yul\":1597:1626   */\n      swap1\n      pop\n        /* \"#utility.yul\":1635:1665   */\n      tag_58\n        /* \"#utility.yul\":1659:1664   */\n      dup2\n        /* \"#utility.yul\":1635:1665   */\n      tag_34\n      jump\t// in\n    tag_58:\n        /* \"#utility.yul\":1538:1671   */\n      swap3\n      swap2\n      pop\n      pop\n      jump\t// out\n        /* \"#utility.yul\":1677:2000   */\n    tag_17:\n        /* \"#utility.yul\":1733:1739   */\n      0x00\n        /* \"#utility.yul\":1782:1784   */\n      0x20\n        /* \"#utility.yul\":1770:1779   */\n      dup3\n        /* \"#utility.yul\":1761:1768   */\n      dup5\n        /* \"#utility.yul\":1757:1780   */\n      sub\n        /* \"#utility.yul\":1753:1785   */\n      slt\n        /* \"#utility.yul\":1750:1869   */\n      iszero\n      tag_60\n      jumpi\n        /* \"#utility.yul\":1788:1867   */\n      tag_61\n      tag_32\n      jump\t// in\n    tag_61:\n        /* \"#utility.yul\":1750:1869   */\n    tag_60:\n        /* \"#utility.yul\":1908:1909   */\n      0x00\n        /* \"#utility.yul\":1933:1983   */\n      tag_62\n        /* \"#utility.yul\":1975:1982   */\n      dup5\n        /* \"#utility.yul\":1966:1972   */\n      dup3\n        /* \"#utility.yul\":1955:1964   */\n      dup6\n        /* \"#utility.yul\":1951:1973   */\n      add\n        /* \"#utility.yul\":1933:1983   */\n      tag_35\n      jump\t// in\n    tag_62:\n        /* \"#utility.yul\":1923:1983   */\n      swap2\n      pop\n        /* \"#utility.yul\":1879:1993   */\n      pop\n        /* \"#utility.yul\":1677:2000   */\n      swap3\n      swap2\n      pop\n      pop\n      jump\t// out\n        /* \"#utility.yul\":2006:2128   */\n    tag_36:\n        /* \"#utility.yul\":2079:2103   */\n      tag_64\n        /* \"#utility.yul\":2097:2102   */\n      dup2\n        /* \"#utility.yul\":2079:2103   */\n      tag_27\n      jump\t// in\n    tag_64:\n        /* \"#utility.yul\":2072:2077   */\n      dup2\n        /* \"#utility.yul\":2069:2104   */\n      eq\n        /* \"#utility.yul\":2059:2122   */\n      tag_65\n      jumpi\n        /* \"#utility.yul\":2118:2119   */\n      0x00\n        /* \"#utility.yul\":2115:2116   */\n      dup1\n        /* \"#utility.yul\":2108:2120   */\n      revert\n        /* \"#utility.yul\":2059:2122   */\n    tag_65:\n        /* \"#utility.yul\":2006:2128   */\n      pop\n      jump\t// out\n        /* \"#utility.yul\":2134:2273   */\n    tag_37:\n        /* \"#utility.yul\":2180:2185   */\n      0x00\n        /* \"#utility.yul\":2218:2224   */\n      dup2\n        /* \"#utility.yul\":2205:2225   */\n      calldataload\n        /* \"#utility.yul\":2196:2225   */\n      swap1\n      pop\n        /* \"#utility.yul\":2234:2267   */\n      tag_67\n        /* \"#utility.yul\":2261:2266   */\n      dup2\n        /* \"#utility.yul\":2234:2267   */\n      tag_36\n      jump\t// in\n    tag_67:\n        /* \"#utility.yul\":2134:2273   */\n      swap3\n      swap2\n      pop\n      pop\n      jump\t// out\n        /* \"#utility.yul\":2279:2898   */\n    tag_21:\n        /* \"#utility.yul\":2356:2362   */\n      0x00\n        /* \"#utility.yul\":2364:2370   */\n      dup1\n        /* \"#utility.yul\":2372:2378   */\n      0x00\n        /* \"#utility.yul\":2421:2423   */\n      0x60\n        /* \"#utility.yul\":2409:2418   */\n      dup5\n        /* \"#utility.yul\":2400:2407   */\n      dup7\n        /* \"#utility.yul\":2396:2419   */\n      sub\n        /* \"#utility.yul\":2392:2424   */\n      slt\n        /* \"#utility.yul\":2389:2508   */\n      iszero\n      tag_69\n      jumpi\n        /* \"#utility.yul\":2427:2506   */\n      tag_70\n      tag_32\n      jump\t// in\n    tag_70:\n        /* \"#utility.yul\":2389:2508   */\n    tag_69:\n        /* \"#utility.yul\":2547:2548   */\n      0x00\n        /* \"#utility.yul\":2572:2625   */\n      tag_71\n        /* \"#utility.yul\":2617:2624   */\n      dup7\n        /* \"#utility.yul\":2608:2614   */\n      dup3\n        /* \"#utility.yul\":2597:2606   */\n      dup8\n        /* \"#utility.yul\":2593:2615   */\n      add\n        /* \"#utility.yul\":2572:2625   */\n      tag_37\n      jump\t// in\n    tag_71:\n        /* \"#utility.yul\":2562:2625   */\n      swap4\n      pop\n        /* \"#utility.yul\":2518:2635   */\n      pop\n        /* \"#utility.yul\":2674:2676   */\n      0x20\n        /* \"#utility.yul\":2700:2753   */\n      tag_72\n        /* \"#utility.yul\":2745:2752   */\n      dup7\n        /* \"#utility.yul\":2736:2742   */\n      dup3\n        /* \"#utility.yul\":2725:2734   */\n      dup8\n        /* \"#utility.yul\":2721:2743   */\n      add\n        /* \"#utility.yul\":2700:2753   */\n      tag_37\n      jump\t// in\n    tag_72:\n        /* \"#utility.yul\":2690:2753   */\n      swap3\n      pop\n        /* \"#utility.yul\":2645:2763   */\n      pop\n        /* \"#utility.yul\":2802:2804   */\n      0x40\n        /* \"#utility.yul\":2828:2881   */\n      tag_73\n        /* \"#utility.yul\":2873:2880   */\n      dup7\n        /* \"#utility.yul\":2864:2870   */\n      dup3\n        /* \"#utility.yul\":2853:2862   */\n      dup8\n        /* \"#utility.yul\":2849:2871   */\n      add\n        /* \"#utility.yul\":2828:2881   */\n      tag_37\n      jump\t// in\n    tag_73:\n        /* \"#utility.yul\":2818:2881   */\n      swap2\n      pop\n        /* \"#utility.yul\":2773:2891   */\n      pop\n        /* \"#utility.yul\":2279:2898   */\n      swap3\n      pop\n      swap3\n      pop\n      swap3\n      jump\t// out\n\n    auxdata: 0xa26469706673582212209e4bf76e742fae057ba12c4274640a5c35809255fb7ce9440dbdf1ff3459f76f64736f6c63430008110033\n}\n",
				"bytecode": {
					"linkReferences": {},
					"object": "608060405234801561001057600080fd5b506102c6806100206000396000f3fe608060405234801561001057600080fd5b506004361061004c5760003560e01c806317eb564f1461005157806320965255146100715780637c1e0d831461008f578063abcae2ca146100ab575b600080fd5b6100596100c7565b60405161006893929190610146565b60405180910390f35b6100796100df565b6040516100869190610198565b60405180910390f35b6100a960048036038101906100a491906101e4565b6100f6565b005b6100c560048036038101906100c0919061023d565b610113565b005b60008060008054600154600254925092509250909192565b6000600360009054906101000a900460ff16905090565b80600360006101000a81548160ff02191690831515021790555050565b826000819055508160018190555080600281905550505050565b6000819050919050565b6101408161012d565b82525050565b600060608201905061015b6000830186610137565b6101686020830185610137565b6101756040830184610137565b949350505050565b60008115159050919050565b6101928161017d565b82525050565b60006020820190506101ad6000830184610189565b92915050565b600080fd5b6101c18161017d565b81146101cc57600080fd5b50565b6000813590506101de816101b8565b92915050565b6000602082840312156101fa576101f96101b3565b5b6000610208848285016101cf565b91505092915050565b61021a8161012d565b811461022557600080fd5b50565b60008135905061023781610211565b92915050565b600080600060608486031215610256576102556101b3565b5b600061026486828701610228565b935050602061027586828701610228565b925050604061028686828701610228565b915050925092509256fea26469706673582212209e4bf76e742fae057ba12c4274640a5c35809255fb7ce9440dbdf1ff3459f76f64736f6c63430008110033",
					"opcodes": "PUSH1 0x80 PUSH1 0x40 MSTORE CALLVALUE DUP1 ISZERO PUSH2 0x10 JUMPI PUSH1 0x0 DUP1 REVERT JUMPDEST POP PUSH2 0x2C6 DUP1 PUSH2 0x20 PUSH1 0x0 CODECOPY PUSH1 0x0 RETURN INVALID PUSH1 0x80 PUSH1 0x40 MSTORE CALLVALUE DUP1 ISZERO PUSH2 0x10 JUMPI PUSH1 0x0 DUP1 REVERT JUMPDEST POP PUSH1 0x4 CALLDATASIZE LT PUSH2 0x4C JUMPI PUSH1 0x0 CALLDATALOAD PUSH1 0xE0 SHR DUP1 PUSH4 0x17EB564F EQ PUSH2 0x51 JUMPI DUP1 PUSH4 0x20965255 EQ PUSH2 0x71 JUMPI DUP1 PUSH4 0x7C1E0D83 EQ PUSH2 0x8F JUMPI DUP1 PUSH4 0xABCAE2CA EQ PUSH2 0xAB JUMPI JUMPDEST PUSH1 0x0 DUP1 REVERT JUMPDEST PUSH2 0x59 PUSH2 0xC7 JUMP JUMPDEST PUSH1 0x40 MLOAD PUSH2 0x68 SWAP4 SWAP3 SWAP2 SWAP1 PUSH2 0x146 JUMP JUMPDEST PUSH1 0x40 MLOAD DUP1 SWAP2 SUB SWAP1 RETURN JUMPDEST PUSH2 0x79 PUSH2 0xDF JUMP JUMPDEST PUSH1 0x40 MLOAD PUSH2 0x86 SWAP2 SWAP1 PUSH2 0x198 JUMP JUMPDEST PUSH1 0x40 MLOAD DUP1 SWAP2 SUB SWAP1 RETURN JUMPDEST PUSH2 0xA9 PUSH1 0x4 DUP1 CALLDATASIZE SUB DUP2 ADD SWAP1 PUSH2 0xA4 SWAP2 SWAP1 PUSH2 0x1E4 JUMP JUMPDEST PUSH2 0xF6 JUMP JUMPDEST STOP JUMPDEST PUSH2 0xC5 PUSH1 0x4 DUP1 CALLDATASIZE SUB DUP2 ADD SWAP1 PUSH2 0xC0 SWAP2 SWAP1 PUSH2 0x23D JUMP JUMPDEST PUSH2 0x113 JUMP JUMPDEST STOP JUMPDEST PUSH1 0x0 DUP1 PUSH1 0x0 DUP1 SLOAD PUSH1 0x1 SLOAD PUSH1 0x2 SLOAD SWAP3 POP SWAP3 POP SWAP3 POP SWAP1 SWAP2 SWAP3 JUMP JUMPDEST PUSH1 0x0 PUSH1 0x3 PUSH1 0x0 SWAP1 SLOAD SWAP1 PUSH2 0x100 EXP SWAP1 DIV PUSH1 0xFF AND SWAP1 POP SWAP1 JUMP JUMPDEST DUP1 PUSH1 0x3 PUSH1 0x0 PUSH2 0x100 EXP DUP2 SLOAD DUP2 PUSH1 0xFF MUL NOT AND SWAP1 DUP4 ISZERO ISZERO MUL OR SWAP1 SSTORE POP POP JUMP JUMPDEST DUP3 PUSH1 0x0 DUP2 SWAP1 SSTORE POP DUP2 PUSH1 0x1 DUP2 SWAP1 SSTORE POP DUP1 PUSH1 0x2 DUP2 SWAP1 SSTORE POP POP POP POP JUMP JUMPDEST PUSH1 0x0 DUP2 SWAP1 POP SWAP2 SWAP1 POP JUMP JUMPDEST PUSH2 0x140 DUP2 PUSH2 0x12D JUMP JUMPDEST DUP3 MSTORE POP POP JUMP JUMPDEST PUSH1 0x0 PUSH1 0x60 DUP3 ADD SWAP1 POP PUSH2 0x15B PUSH1 0x0 DUP4 ADD DUP7 PUSH2 0x137 JUMP JUMPDEST PUSH2 0x168 PUSH1 0x20 DUP4 ADD DUP6 PUSH2 0x137 JUMP JUMPDEST PUSH2 0x175 PUSH1 0x40 DUP4 ADD DUP5 PUSH2 0x137 JUMP JUMPDEST SWAP5 SWAP4 POP POP POP POP JUMP JUMPDEST PUSH1 0x0 DUP2 ISZERO ISZERO SWAP1 POP SWAP2 SWAP1 POP JUMP JUMPDEST PUSH2 0x192 DUP2 PUSH2 0x17D JUMP JUMPDEST DUP3 MSTORE POP POP JUMP JUMPDEST PUSH1 0x0 PUSH1 0x20 DUP3 ADD SWAP1 POP PUSH2 0x1AD PUSH1 0x0 DUP4 ADD DUP5 PUSH2 0x189 JUMP JUMPDEST SWAP3 SWAP2 POP POP JUMP JUMPDEST PUSH1 0x0 DUP1 REVERT JUMPDEST PUSH2 0x1C1 DUP2 PUSH2 0x17D JUMP JUMPDEST DUP2 EQ PUSH2 0x1CC JUMPI PUSH1 0x0 DUP1 REVERT JUMPDEST POP JUMP JUMPDEST PUSH1 0x0 DUP2 CALLDATALOAD SWAP1 POP PUSH2 0x1DE DUP2 PUSH2 0x1B8 JUMP JUMPDEST SWAP3 SWAP2 POP POP JUMP JUMPDEST PUSH1 0x0 PUSH1 0x20 DUP3 DUP5 SUB SLT ISZERO PUSH2 0x1FA JUMPI PUSH2 0x1F9 PUSH2 0x1B3 JUMP JUMPDEST JUMPDEST PUSH1 0x0 PUSH2 0x208 DUP5 DUP3 DUP6 ADD PUSH2 0x1CF JUMP JUMPDEST SWAP2 POP POP SWAP3 SWAP2 POP POP JUMP JUMPDEST PUSH2 0x21A DUP2 PUSH2 0x12D JUMP JUMPDEST DUP2 EQ PUSH2 0x225 JUMPI PUSH1 0x0 DUP1 REVERT JUMPDEST POP JUMP JUMPDEST PUSH1 0x0 DUP2 CALLDATALOAD SWAP1 POP PUSH2 0x237 DUP2 PUSH2 0x211 JUMP JUMPDEST SWAP3 SWAP2 POP POP JUMP JUMPDEST PUSH1 0x0 DUP1 PUSH1 0x0 PUSH1 0x60 DUP5 DUP7 SUB SLT ISZERO PUSH2 0x256 JUMPI PUSH2 0x255 PUSH2 0x1B3 JUMP JUMPDEST JUMPDEST PUSH1 0x0 PUSH2 0x264 DUP7 DUP3 DUP8 ADD PUSH2 0x228 JUMP JUMPDEST SWAP4 POP POP PUSH1 0x20 PUSH2 0x275 DUP7 DUP3 DUP8 ADD PUSH2 0x228 JUMP JUMPDEST SWAP3 POP POP PUSH1 0x40 PUSH2 0x286 DUP7 DUP3 DUP8 ADD PUSH2 0x228 JUMP JUMPDEST SWAP2 POP POP SWAP3 POP SWAP3 POP SWAP3 JUMP INVALID LOG2 PUSH5 0x6970667358 0x22 SLT KECCAK256 SWAP15 0x4B 0xF7 PUSH15 0x742FAE057BA12C4274640A5C358092 SSTORE 0xFB PUSH29 0xE9440DBDF1FF3459F76F64736F6C634300081100330000000000000000 "
				},
				"gasEstimates": {
					"creation": {
						"codeDepositCost": "142000",
						"executionCost": "190",
						"totalCost": "142190"
					},
					"external": {
						"getDimenions()": "infinite",
						"getValue()": "2479",
						"setDimensions(uint256,uint256,uint256)": "infinite",
						"setValue(bool)": "24701"
					}
				},
				"methodIdentifiers": {
					"getDimenions()": "17eb564f",
					"getValue()": "20965255",
					"setDimensions(uint256,uint256,uint256)": "abcae2ca",
					"setValue(bool)": "7c1e0d83"
				}
			},
			"storageLayout": {
				"storage": [
					{
						"astId": 3,
						"contract": "inheritance.sol:Book2",
						"label": "length",
						"offset": 0,
						"slot": "0",
						"type": "t_uint256"
					},
					{
						"astId": 5,
						"contract": "inheritance.sol:Book2",
						"label": "breadth",
						"offset": 0,
						"slot": "1",
						"type": "t_uint256"
					},
					{
						"astId": 7,
						"contract": "inheritance.sol:Book2",
						"label": "height",
						"offset": 0,
						"slot": "2",
						"type": "t_uint256"
					},
					{
						"astId": 49,
						"contract": "inheritance.sol:Book2",
						"label": "value",
						"offset": 0,
						"slot": "3",
						"type": "t_bool"
					}
				],
				"types": {
					"t_bool": {
						"encoding": "inplace",
						"label": "bool",
						"numberOfBytes": "1"
					},
					"t_uint256": {
						"encoding": "inplace",
						"label": "uint256",
						"numberOfBytes": "32"
					}
				}
			},
			"userdoc": {
				"kind": "user",
				"methods": {},
				"version": 1
			}
		}
	}
}