{
	"inheritance.sol": {
		"Book": {
			"abi": [
				{
					"inputs": [],
					"name": "getDimenions",
					"outputs": [
						{
							"internalType": "uint256",
							"name": "",
							"type": "uint256"
						},
						{
							"internalType": "uint256",
							"name": "",
							"type": "uint256"
						},
						{
							"internalType": "uint256",
							"name": "",
							"type": "uint256"
						}
					],
					"stateMutability": "view",
					"type": "function"
				},
				{
					"inputs": [
						{
							"internalType": "uint256",
							"name": "_length",
							"type": "uint256"
						},
						{
							"internalType": "uint256",
							"name": "_breadth",
							"type": "uint256"
						},
						{
							"internalType": "uint256",
							"name": "_height",
							"type": "uint256"
						}
					],
					"name": "setDimensions",
					"outputs": [],
					"stateMutability": "nonpayable",
					"type": "function"
				}
			],
			"devdoc": {
				"kind": "dev",
				"methods": {},
				"version": 1
			},
			"evm": {
				"assembly": "    /* \"inheritance.sol\":48:414  contract Book{... */\n  mstore(0x40, 0x80)\n  callvalue\n  dup1\n  iszero\n  tag_1\n  jumpi\n  0x00\n  dup1\n  revert\ntag_1:\n  pop\n  dataSize(sub_0)\n  dup1\n  dataOffset(sub_0)\n  0x00\n  codecopy\n  0x00\n  return\nstop\n\nsub_0: assembly {\n        /* \"inheritance.sol\":48:414  contract Book{... */\n      mstore(0x40, 0x80)\n      callvalue\n      dup1\n      iszero\n      tag_1\n      jumpi\n      0x00\n      dup1\n      revert\n    tag_1:\n      pop\n      jumpi(tag_2, lt(calldatasize, 0x04))\n      shr(0xe0, calldataload(0x00))\n      dup1\n      0x17eb564f\n      eq\n      tag_3\n      jumpi\n      dup1\n      0xabcae2ca\n      eq\n      tag_4\n      jumpi\n    tag_2:\n      0x00\n      dup1\n      revert\n        /* \"inheritance.sol\":300:411  function getDimenions() view public returns(uint, uint, uint){... */\n    tag_3:\n      tag_5\n      tag_6\n      jump\t// in\n    tag_5:\n      mload(0x40)\n      tag_7\n      swap4\n      swap3\n      swap2\n      swap1\n      tag_8\n      jump\t// in\n    tag_7:\n      mload(0x40)\n      dup1\n      swap2\n      sub\n      swap1\n      return\n        /* \"inheritance.sol\":127:292  function setDimensions(uint _length, uint _breadth, uint _height) public{... */\n    tag_4:\n      tag_9\n      0x04\n      dup1\n      calldatasize\n      sub\n      dup2\n      add\n      swap1\n      tag_10\n      swap2\n      swap1\n      tag_11\n      jump\t// in\n    tag_10:\n      tag_12\n      jump\t// in\n    tag_9:\n      stop\n        /* \"inheritance.sol\":300:411  function getDimenions() view public returns(uint, uint, uint){... */\n    tag_6:\n        /* \"inheritance.sol\":344:348  uint */\n      0x00\n        /* \"inheritance.sol\":350:354  uint */\n      dup1\n        /* \"inheritance.sol\":356:360  uint */\n      0x00\n        /* \"inheritance.sol\":379:385  length */\n      dup1\n      sload\n        /* \"inheritance.sol\":387:394  breadth */\n      sload(0x01)\n        /* \"inheritance.sol\":396:402  height */\n      sload(0x02)\n        /* \"inheritance.sol\":372:403  return(length, breadth, height) */\n      swap3\n      pop\n      swap3\n      pop\n      swap3\n      pop\n        /* \"inheritance.sol\":300:411  function getDimenions() view public returns(uint, uint, uint){... */\n      swap1\n      swap2\n      swap3\n      jump\t// out\n        /* \"inheritance.sol\":127:292  function setDimensions(uint _length, uint _breadth, uint _height) public{... */\n    tag_12:\n        /* \"inheritance.sol\":221:228  _length */\n      dup3\n        /* \"inheritance.sol\":212:218  length */\n      0x00\n        /* \"inheritance.sol\":212:228  length = _length */\n      dup2\n      swap1\n      sstore\n      pop\n        /* \"inheritance.sol\":249:257  _breadth */\n      dup2\n        /* \"inheritance.sol\":239:246  breadth */\n      0x01\n        /* \"inheritance.sol\":239:257  breadth = _breadth */\n      dup2\n      swap1\n      sstore\n      pop\n        /* \"inheritance.sol\":277:284  _height */\n      dup1\n        /* \"inheritance.sol\":268:274  height */\n      0x02\n        /* \"inheritance.sol\":268:284  height = _height */\n      dup2\n      swap1\n      sstore\n      pop\n        /* \"inheritance.sol\":127:292  function setDimensions(uint _length, uint _breadth, uint _height) public{... */\n      pop\n      pop\n      pop\n      jump\t// out\n        /* \"#utility.yul\":7:84   */\n    tag_15:\n        /* \"#utility.yul\":44:51   */\n      0x00\n        /* \"#utility.yul\":73:78   */\n      dup2\n        /* \"#utility.yul\":62:78   */\n      swap1\n      pop\n        /* \"#utility.yul\":7:84   */\n      swap2\n      swap1\n      pop\n      jump\t// out\n        /* \"#utility.yul\":90:208   */\n    tag_16:\n        /* \"#utility.yul\":177:201   */\n      tag_25\n        /* \"#utility.yul\":195:200   */\n      dup2\n        /* \"#utility.yul\":177:201   */\n      tag_15\n      jump\t// in\n    tag_25:\n        /* \"#utility.yul\":172:175   */\n      dup3\n        /* \"#utility.yul\":165:202   */\n      mstore\n        /* \"#utility.yul\":90:208   */\n      pop\n      pop\n      jump\t// out\n        /* \"#utility.yul\":214:656   */\n    tag_8:\n        /* \"#utility.yul\":363:367   */\n      0x00\n        /* \"#utility.yul\":401:403   */\n      0x60\n        /* \"#utility.yul\":390:399   */\n      dup3\n        /* \"#utility.yul\":386:404   */\n      add\n        /* \"#utility.yul\":378:404   */\n      swap1\n      pop\n        /* \"#utility.yul\":414:485   */\n      tag_27\n        /* \"#utility.yul\":482:483   */\n      0x00\n        /* \"#utility.yul\":471:480   */\n      dup4\n        /* \"#utility.yul\":467:484   */\n      add\n        /* \"#utility.yul\":458:464   */\n      dup7\n        /* \"#utility.yul\":414:485   */\n      tag_16\n      jump\t// in\n    tag_27:\n        /* \"#utility.yul\":495:567   */\n      tag_28\n        /* \"#utility.yul\":563:565   */\n      0x20\n        /* \"#utility.yul\":552:561   */\n      dup4\n        /* \"#utility.yul\":548:566   */\n      add\n        /* \"#utility.yul\":539:545   */\n      dup6\n        /* \"#utility.yul\":495:567   */\n      tag_16\n      jump\t// in\n    tag_28:\n        /* \"#utility.yul\":577:649   */\n      tag_29\n        /* \"#utility.yul\":645:647   */\n      0x40\n        /* \"#utility.yul\":634:643   */\n      dup4\n        /* \"#utility.yul\":630:648   */\n      add\n        /* \"#utility.yul\":621:627   */\n      dup5\n        /* \"#utility.yul\":577:649   */\n      tag_16\n      jump\t// in\n    tag_29:\n        /* \"#utility.yul\":214:656   */\n      swap5\n      swap4\n      pop\n      pop\n      pop\n      pop\n      jump\t// out\n        /* \"#utility.yul\":743:860   */\n    tag_18:\n        /* \"#utility.yul\":852:853   */\n      0x00\n        /* \"#utility.yul\":849:850   */\n      dup1\n        /* \"#utility.yul\":842:854   */\n      revert\n        /* \"#utility.yul\":989:1111   */\n    tag_20:\n        /* \"#utility.yul\":1062:1086   */\n      tag_34\n        /* \"#utility.yul\":1080:1085   */\n      dup2\n        /* \"#utility.yul\":1062:1086   */\n      tag_15\n      jump\t// in\n    tag_34:\n        /* \"#utility.yul\":1055:1060   */\n      dup2\n        /* \"#utility.yul\":1052:1087   */\n      eq\n        /* \"#utility.yul\":1042:1105   */\n      tag_35\n      jumpi\n        /* \"#utility.yul\":1101:1102   */\n      0x00\n        /* \"#utility.yul\":1098:1099   */\n      dup1\n        /* \"#utility.yul\":1091:1103   */\n      revert\n        /* \"#utility.yul\":1042:1105   */\n    tag_35:\n        /* \"#utility.yul\":989:1111   */\n      pop\n      jump\t// out\n        /* \"#utility.yul\":1117:1256   */\n    tag_21:\n        /* \"#utility.yul\":1163:1168   */\n      0x00\n        /* \"#utility.yul\":1201:1207   */\n      dup2\n        /* \"#utility.yul\":1188:1208   */\n      calldataload\n        /* \"#utility.yul\":1179:1208   */\n      swap1\n      pop\n        /* \"#utility.yul\":1217:1250   */\n      tag_37\n        /* \"#utility.yul\":1244:1249   */\n      dup2\n        /* \"#utility.yul\":1217:1250   */\n      tag_20\n      jump\t// in\n    tag_37:\n        /* \"#utility.yul\":1117:1256   */\n      swap3\n      swap2\n      pop\n      pop\n      jump\t// out\n        /* \"#utility.yul\":1262:1881   */\n    tag_11:\n        /* \"#utility.yul\":1339:1345   */\n      0x00\n        /* \"#utility.yul\":1347:1353   */\n      dup1\n        /* \"#utility.yul\":1355:1361   */\n      0x00\n        /* \"#utility.yul\":1404:1406   */\n      0x60\n        /* \"#utility.yul\":1392:1401   */\n      dup5\n        /* \"#utility.yul\":1383:1390   */\n      dup7\n        /* \"#utility.yul\":1379:1402   */\n      sub\n        /* \"#utility.yul\":1375:1407   */\n      slt\n        /* \"#utility.yul\":1372:1491   */\n      iszero\n      tag_39\n      jumpi\n        /* \"#utility.yul\":1410:1489   */\n      tag_40\n      tag_18\n      jump\t// in\n    tag_40:\n        /* \"#utility.yul\":1372:1491   */\n    tag_39:\n        /* \"#utility.yul\":1530:1531   */\n      0x00\n        /* \"#utility.yul\":1555:1608   */\n      tag_41\n        /* \"#utility.yul\":1600:1607   */\n      dup7\n        /* \"#utility.yul\":1591:1597   */\n      dup3\n        /* \"#utility.yul\":1580:1589   */\n      dup8\n        /* \"#utility.yul\":1576:1598   */\n      add\n        /* \"#utility.yul\":1555:1608   */\n      tag_21\n      jump\t// in\n    tag_41:\n        /* \"#utility.yul\":1545:1608   */\n      swap4\n      pop\n        /* \"#utility.yul\":1501:1618   */\n      pop\n        /* \"#utility.yul\":1657:1659   */\n      0x20\n        /* \"#utility.yul\":1683:1736   */\n      tag_42\n        /* \"#utility.yul\":1728:1735   */\n      dup7\n        /* \"#utility.yul\":1719:1725   */\n      dup3\n        /* \"#utility.yul\":1708:1717   */\n      dup8\n        /* \"#utility.yul\":1704:1726   */\n      add\n        /* \"#utility.yul\":1683:1736   */\n      tag_21\n      jump\t// in\n    tag_42:\n        /* \"#utility.yul\":1673:1736   */\n      swap3\n      pop\n        /* \"#utility.yul\":1628:1746   */\n      pop\n        /* \"#utility.yul\":1785:1787   */\n      0x40\n        /* \"#utility.yul\":1811:1864   */\n      tag_43\n        /* \"#utility.yul\":1856:1863   */\n      dup7\n        /* \"#utility.yul\":1847:1853   */\n      dup3\n        /* \"#utility.yul\":1836:1845   */\n      dup8\n        /* \"#utility.yul\":1832:1854   */\n      add\n        /* \"#utility.yul\":1811:1864   */\n      tag_21\n      jump\t// in\n    tag_43:\n        /* \"#utility.yul\":1801:1864   */\n      swap2\n      pop\n        /* \"#utility.yul\":1756:1874   */\n      pop\n        /* \"#utility.yul\":1262:1881   */\n      swap3\n      pop\n      swap3\n      pop\n      swap3\n      jump\t// out\n\n    auxdata: 0xa264697066735822122062ed481809dae4d8313db9fe4f1d5498de60a873e6b14e861886f9c3d73d54d064736f6c63430008110033\n}\n",
				"bytecode": {
					"linkReferences": {},
					"object": "608060405234801561001057600080fd5b506101b3806100206000396000f3fe608060405234801561001057600080fd5b50600436106100365760003560e01c806317eb564f1461003b578063abcae2ca1461005b575b600080fd5b610043610077565b604051610052939291906100c2565b60405180910390f35b6100756004803603810190610070919061012a565b61008f565b005b60008060008054600154600254925092509250909192565b826000819055508160018190555080600281905550505050565b6000819050919050565b6100bc816100a9565b82525050565b60006060820190506100d760008301866100b3565b6100e460208301856100b3565b6100f160408301846100b3565b949350505050565b600080fd5b610107816100a9565b811461011257600080fd5b50565b600081359050610124816100fe565b92915050565b600080600060608486031215610143576101426100f9565b5b600061015186828701610115565b935050602061016286828701610115565b925050604061017386828701610115565b915050925092509256fea264697066735822122062ed481809dae4d8313db9fe4f1d5498de60a873e6b14e861886f9c3d73d54d064736f6c63430008110033",
					"opcodes": "PUSH1 0x80 PUSH1 0x40 MSTORE CALLVALUE DUP1 ISZERO PUSH2 0x10 JUMPI PUSH1 0x0 DUP1 REVERT JUMPDEST POP PUSH2 0x1B3 DUP1 PUSH2 0x20 PUSH1 0x0 CODECOPY PUSH1 0x0 RETURN INVALID PUSH1 0x80 PUSH1 0x40 MSTORE CALLVALUE DUP1 ISZERO PUSH2 0x10 JUMPI PUSH1 0x0 DUP1 REVERT JUMPDEST POP PUSH1 0x4 CALLDATASIZE LT PUSH2 0x36 JUMPI PUSH1 0x0 CALLDATALOAD PUSH1 0xE0 SHR DUP1 PUSH4 0x17EB564F EQ PUSH2 0x3B JUMPI DUP1 PUSH4 0xABCAE2CA EQ PUSH2 0x5B JUMPI JUMPDEST PUSH1 0x0 DUP1 REVERT JUMPDEST PUSH2 0x43 PUSH2 0x77 JUMP JUMPDEST PUSH1 0x40 MLOAD PUSH2 0x52 SWAP4 SWAP3 SWAP2 SWAP1 PUSH2 0xC2 JUMP JUMPDEST PUSH1 0x40 MLOAD DUP1 SWAP2 SUB SWAP1 RETURN JUMPDEST PUSH2 0x75 PUSH1 0x4 DUP1 CALLDATASIZE SUB DUP2 ADD SWAP1 PUSH2 0x70 SWAP2 SWAP1 PUSH2 0x12A JUMP JUMPDEST PUSH2 0x8F JUMP JUMPDEST STOP JUMPDEST PUSH1 0x0 DUP1 PUSH1 0x0 DUP1 SLOAD PUSH1 0x1 SLOAD PUSH1 0x2 SLOAD SWAP3 POP SWAP3 POP SWAP3 POP SWAP1 SWAP2 SWAP3 JUMP JUMPDEST DUP3 PUSH1 0x0 DUP2 SWAP1 SSTORE POP DUP2 PUSH1 0x1 DUP2 SWAP1 SSTORE POP DUP1 PUSH1 0x2 DUP2 SWAP1 SSTORE POP POP POP POP JUMP JUMPDEST PUSH1 0x0 DUP2 SWAP1 POP SWAP2 SWAP1 POP JUMP JUMPDEST PUSH2 0xBC DUP2 PUSH2 0xA9 JUMP JUMPDEST DUP3 MSTORE POP POP JUMP JUMPDEST PUSH1 0x0 PUSH1 0x60 DUP3 ADD SWAP1 POP PUSH2 0xD7 PUSH1 0x0 DUP4 ADD DUP7 PUSH2 0xB3 JUMP JUMPDEST PUSH2 0xE4 PUSH1 0x20 DUP4 ADD DUP6 PUSH2 0xB3 JUMP JUMPDEST PUSH2 0xF1 PUSH1 0x40 DUP4 ADD DUP5 PUSH2 0xB3 JUMP JUMPDEST SWAP5 SWAP4 POP POP POP POP JUMP JUMPDEST PUSH1 0x0 DUP1 REVERT JUMPDEST PUSH2 0x107 DUP2 PUSH2 0xA9 JUMP JUMPDEST DUP2 EQ PUSH2 0x112 JUMPI PUSH1 0x0 DUP1 REVERT JUMPDEST POP JUMP JUMPDEST PUSH1 0x0 DUP2 CALLDATALOAD SWAP1 POP PUSH2 0x124 DUP2 PUSH2 0xFE JUMP JUMPDEST SWAP3 SWAP2 POP POP JUMP JUMPDEST PUSH1 0x0 DUP1 PUSH1 0x0 PUSH1 0x60 DUP5 DUP7 SUB SLT ISZERO PUSH2 0x143 JUMPI PUSH2 0x142 PUSH2 0xF9 JUMP JUMPDEST JUMPDEST PUSH1 0x0 PUSH2 0x151 DUP7 DUP3 DUP8 ADD PUSH2 0x115 JUMP JUMPDEST SWAP4 POP POP PUSH1 0x20 PUSH2 0x162 DUP7 DUP3 DUP8 ADD PUSH2 0x115 JUMP JUMPDEST SWAP3 POP POP PUSH1 0x40 PUSH2 0x173 DUP7 DUP3 DUP8 ADD PUSH2 0x115 JUMP JUMPDEST SWAP2 POP POP SWAP3 POP SWAP3 POP SWAP3 JUMP INVALID LOG2 PUSH5 0x6970667358 0x22 SLT KECCAK256 PUSH3 0xED4818 MULMOD 0xDA 0xE4 0xD8 BALANCE RETURNDATASIZE 0xB9 INVALID 0x4F SAR SLOAD SWAP9 0xDE PUSH1 0xA8 PUSH20 0xE6B14E861886F9C3D73D54D064736F6C63430008 GT STOP CALLER "
				},
				"gasEstimates": {
					"creation": {
						"codeDepositCost": "87000",
						"executionCost": "135",
						"totalCost": "87135"
					},
					"external": {
						"getDimenions()": "infinite",
						"setDimensions(uint256,uint256,uint256)": "infinite"
					}
				},
				"methodIdentifiers": {
					"getDimenions()": "17eb564f",
					"setDimensions(uint256,uint256,uint256)": "abcae2ca"
				}
			},
			"storageLayout": {
				"storage": [
					{
						"astId": 3,
						"contract": "inheritance.sol:Book",
						"label": "length",
						"offset": 0,
						"slot": "0",
						"type": "t_uint256"
					},
					{
						"astId": 5,
						"contract": "inheritance.sol:Book",
						"label": "breadth",
						"offset": 0,
						"slot": "1",
						"type": "t_uint256"
					},
					{
						"astId": 7,
						"contract": "inheritance.sol:Book",
						"label": "height",
						"offset": 0,
						"slot": "2",
						"type": "t_uint256"
					}
				],
				"types": {
					"t_uint256": {
						"encoding": "inplace",
						"label": "uint256",
						"numberOfBytes": "32"
					}
				}
			},
			"userdoc": {
				"kind": "user",
				"methods": {},
				"version": 1
			}
		}
	}
}