{
	"enum.sol": {
		"enumpractise": {
			"abi": [
				{
					"inputs": [],
					"name": "lottery",
					"outputs": [
						{
							"internalType": "uint256",
							"name": "",
							"type": "uint256"
						}
					],
					"stateMutability": "view",
					"type": "function"
				},
				{
					"inputs": [],
					"name": "owner",
					"outputs": [],
					"stateMutability": "nonpayable",
					"type": "function"
				},
				{
					"inputs": [],
					"name": "owner_change",
					"outputs": [],
					"stateMutability": "nonpayable",
					"type": "function"
				},
				{
					"inputs": [],
					"name": "u1",
					"outputs": [
						{
							"internalType": "enum enumpractise.user",
							"name": "",
							"type": "uint8"
						}
					],
					"stateMutability": "view",
					"type": "function"
				}
			],
			"devdoc": {
				"kind": "dev",
				"methods": {},
				"version": 1
			},
			"evm": {
				"assembly": "    /* \"enum.sol\":36:368  contract enumpractise{... */\n  mstore(0x40, 0x80)\n    /* \"enum.sol\":128:140  user.allowed */\n  0x00\n    /* \"enum.sol\":111:140  user public u1 = user.allowed */\n  dup1\n  exp(0x0100, 0x00)\n  dup2\n  sload\n  dup2\n  0xff\n  mul\n  not\n  and\n  swap1\n  dup4\n  0x02\n  dup2\n  gt\n  iszero\n  tag_1\n  jumpi\n  tag_2\n  tag_3\n  jump\t// in\ntag_2:\ntag_1:\n  mul\n  or\n  swap1\n  sstore\n  pop\n    /* \"enum.sol\":169:173  1000 */\n  0x03e8\n    /* \"enum.sol\":147:173  uint public lottery = 1000 */\n  0x01\n  sstore\n    /* \"enum.sol\":36:368  contract enumpractise{... */\n  callvalue\n  dup1\n  iszero\n  tag_4\n  jumpi\n  0x00\n  dup1\n  revert\ntag_4:\n  pop\n  jump(tag_5)\n    /* \"#utility.yul\":7:187   */\ntag_3:\n    /* \"#utility.yul\":55:132   */\n  0x4e487b7100000000000000000000000000000000000000000000000000000000\n    /* \"#utility.yul\":52:53   */\n  0x00\n    /* \"#utility.yul\":45:133   */\n  mstore\n    /* \"#utility.yul\":152:156   */\n  0x21\n    /* \"#utility.yul\":149:150   */\n  0x04\n    /* \"#utility.yul\":142:157   */\n  mstore\n    /* \"#utility.yul\":176:180   */\n  0x24\n    /* \"#utility.yul\":173:174   */\n  0x00\n    /* \"#utility.yul\":166:181   */\n  revert\n    /* \"enum.sol\":36:368  contract enumpractise{... */\ntag_5:\n  dataSize(sub_0)\n  dup1\n  dataOffset(sub_0)\n  0x00\n  codecopy\n  0x00\n  return\nstop\n\nsub_0: assembly {\n        /* \"enum.sol\":36:368  contract enumpractise{... */\n      mstore(0x40, 0x80)\n      callvalue\n      dup1\n      iszero\n      tag_1\n      jumpi\n      0x00\n      dup1\n      revert\n    tag_1:\n      pop\n      jumpi(tag_2, lt(calldatasize, 0x04))\n      shr(0xe0, calldataload(0x00))\n      dup1\n      0x1aa35610\n      eq\n      tag_3\n      jumpi\n      dup1\n      0x63fe59a5\n      eq\n      tag_4\n      jumpi\n      dup1\n      0x8da5cb5b\n      eq\n      tag_5\n      jumpi\n      dup1\n      0xba13a572\n      eq\n      tag_6\n      jumpi\n    tag_2:\n      0x00\n      dup1\n      revert\n        /* \"enum.sol\":111:140  user public u1 = user.allowed */\n    tag_3:\n      tag_7\n      tag_8\n      jump\t// in\n    tag_7:\n      mload(0x40)\n      tag_9\n      swap2\n      swap1\n      tag_10\n      jump\t// in\n    tag_9:\n      mload(0x40)\n      dup1\n      swap2\n      sub\n      swap1\n      return\n        /* \"enum.sol\":293:365  function owner_change() public{... */\n    tag_4:\n      tag_11\n      tag_12\n      jump\t// in\n    tag_11:\n      stop\n        /* \"enum.sol\":182:285  function owner() public{... */\n    tag_5:\n      tag_13\n      tag_14\n      jump\t// in\n    tag_13:\n      stop\n        /* \"enum.sol\":147:173  uint public lottery = 1000 */\n    tag_6:\n      tag_15\n      tag_16\n      jump\t// in\n    tag_15:\n      mload(0x40)\n      tag_17\n      swap2\n      swap1\n      tag_18\n      jump\t// in\n    tag_17:\n      mload(0x40)\n      dup1\n      swap2\n      sub\n      swap1\n      return\n        /* \"enum.sol\":111:140  user public u1 = user.allowed */\n    tag_8:\n      0x00\n      dup1\n      sload\n      swap1\n      0x0100\n      exp\n      swap1\n      div\n      0xff\n      and\n      dup2\n      jump\t// out\n        /* \"enum.sol\":293:365  function owner_change() public{... */\n    tag_12:\n        /* \"enum.sol\":341:357  user.not_allowed */\n      0x01\n        /* \"enum.sol\":336:338  u1 */\n      0x00\n      dup1\n        /* \"enum.sol\":336:357  u1 = user.not_allowed */\n      0x0100\n      exp\n      dup2\n      sload\n      dup2\n      0xff\n      mul\n      not\n      and\n      swap1\n      dup4\n      0x02\n      dup2\n      gt\n      iszero\n      tag_20\n      jumpi\n      tag_21\n      tag_22\n      jump\t// in\n    tag_21:\n    tag_20:\n      mul\n      or\n      swap1\n      sstore\n      pop\n        /* \"enum.sol\":293:365  function owner_change() public{... */\n      jump\t// out\n        /* \"enum.sol\":182:285  function owner() public{... */\n    tag_14:\n        /* \"enum.sol\":227:239  user.allowed */\n      0x00\n        /* \"enum.sol\":221:239  u1 == user.allowed */\n      0x02\n      dup2\n      gt\n      iszero\n      tag_24\n      jumpi\n      tag_25\n      tag_22\n      jump\t// in\n    tag_25:\n    tag_24:\n        /* \"enum.sol\":221:223  u1 */\n      0x00\n      dup1\n      sload\n      swap1\n      0x0100\n      exp\n      swap1\n      div\n      0xff\n      and\n        /* \"enum.sol\":221:239  u1 == user.allowed */\n      0x02\n      dup2\n      gt\n      iszero\n      tag_26\n      jumpi\n      tag_27\n      tag_22\n      jump\t// in\n    tag_27:\n    tag_26:\n      sub\n        /* \"enum.sol\":218:278  if(u1 == user.allowed){... */\n      tag_28\n      jumpi\n        /* \"enum.sol\":265:266  0 */\n      0x00\n        /* \"enum.sol\":255:262  lottery */\n      0x01\n        /* \"enum.sol\":255:266  lottery = 0 */\n      dup2\n      swap1\n      sstore\n      pop\n        /* \"enum.sol\":218:278  if(u1 == user.allowed){... */\n    tag_28:\n        /* \"enum.sol\":182:285  function owner() public{... */\n      jump\t// out\n        /* \"enum.sol\":147:173  uint public lottery = 1000 */\n    tag_16:\n      sload(0x01)\n      dup2\n      jump\t// out\n        /* \"#utility.yul\":7:187   */\n    tag_22:\n        /* \"#utility.yul\":55:132   */\n      0x4e487b7100000000000000000000000000000000000000000000000000000000\n        /* \"#utility.yul\":52:53   */\n      0x00\n        /* \"#utility.yul\":45:133   */\n      mstore\n        /* \"#utility.yul\":152:156   */\n      0x21\n        /* \"#utility.yul\":149:150   */\n      0x04\n        /* \"#utility.yul\":142:157   */\n      mstore\n        /* \"#utility.yul\":176:180   */\n      0x24\n        /* \"#utility.yul\":173:174   */\n      0x00\n        /* \"#utility.yul\":166:181   */\n      revert\n        /* \"#utility.yul\":193:304   */\n    tag_29:\n        /* \"#utility.yul\":272:273   */\n      0x03\n        /* \"#utility.yul\":265:270   */\n      dup2\n        /* \"#utility.yul\":262:274   */\n      lt\n        /* \"#utility.yul\":252:298   */\n      tag_38\n      jumpi\n        /* \"#utility.yul\":278:296   */\n      tag_39\n      tag_22\n      jump\t// in\n    tag_39:\n        /* \"#utility.yul\":252:298   */\n    tag_38:\n        /* \"#utility.yul\":193:304   */\n      pop\n      jump\t// out\n        /* \"#utility.yul\":310:433   */\n    tag_30:\n        /* \"#utility.yul\":353:360   */\n      0x00\n        /* \"#utility.yul\":382:387   */\n      dup2\n        /* \"#utility.yul\":371:387   */\n      swap1\n      pop\n        /* \"#utility.yul\":388:427   */\n      tag_41\n        /* \"#utility.yul\":421:426   */\n      dup3\n        /* \"#utility.yul\":388:427   */\n      tag_29\n      jump\t// in\n    tag_41:\n        /* \"#utility.yul\":310:433   */\n      swap2\n      swap1\n      pop\n      jump\t// out\n        /* \"#utility.yul\":439:562   */\n    tag_31:\n        /* \"#utility.yul\":493:502   */\n      0x00\n        /* \"#utility.yul\":526:556   */\n      tag_43\n        /* \"#utility.yul\":550:555   */\n      dup3\n        /* \"#utility.yul\":526:556   */\n      tag_30\n      jump\t// in\n    tag_43:\n        /* \"#utility.yul\":513:556   */\n      swap1\n      pop\n        /* \"#utility.yul\":439:562   */\n      swap2\n      swap1\n      pop\n      jump\t// out\n        /* \"#utility.yul\":568:707   */\n    tag_32:\n        /* \"#utility.yul\":659:700   */\n      tag_45\n        /* \"#utility.yul\":694:699   */\n      dup2\n        /* \"#utility.yul\":659:700   */\n      tag_31\n      jump\t// in\n    tag_45:\n        /* \"#utility.yul\":654:657   */\n      dup3\n        /* \"#utility.yul\":647:701   */\n      mstore\n        /* \"#utility.yul\":568:707   */\n      pop\n      pop\n      jump\t// out\n        /* \"#utility.yul\":713:943   */\n    tag_10:\n        /* \"#utility.yul\":810:814   */\n      0x00\n        /* \"#utility.yul\":848:850   */\n      0x20\n        /* \"#utility.yul\":837:846   */\n      dup3\n        /* \"#utility.yul\":833:851   */\n      add\n        /* \"#utility.yul\":825:851   */\n      swap1\n      pop\n        /* \"#utility.yul\":861:936   */\n      tag_47\n        /* \"#utility.yul\":933:934   */\n      0x00\n        /* \"#utility.yul\":922:931   */\n      dup4\n        /* \"#utility.yul\":918:935   */\n      add\n        /* \"#utility.yul\":909:915   */\n      dup5\n        /* \"#utility.yul\":861:936   */\n      tag_32\n      jump\t// in\n    tag_47:\n        /* \"#utility.yul\":713:943   */\n      swap3\n      swap2\n      pop\n      pop\n      jump\t// out\n        /* \"#utility.yul\":949:1026   */\n    tag_33:\n        /* \"#utility.yul\":986:993   */\n      0x00\n        /* \"#utility.yul\":1015:1020   */\n      dup2\n        /* \"#utility.yul\":1004:1020   */\n      swap1\n      pop\n        /* \"#utility.yul\":949:1026   */\n      swap2\n      swap1\n      pop\n      jump\t// out\n        /* \"#utility.yul\":1032:1150   */\n    tag_34:\n        /* \"#utility.yul\":1119:1143   */\n      tag_50\n        /* \"#utility.yul\":1137:1142   */\n      dup2\n        /* \"#utility.yul\":1119:1143   */\n      tag_33\n      jump\t// in\n    tag_50:\n        /* \"#utility.yul\":1114:1117   */\n      dup3\n        /* \"#utility.yul\":1107:1144   */\n      mstore\n        /* \"#utility.yul\":1032:1150   */\n      pop\n      pop\n      jump\t// out\n        /* \"#utility.yul\":1156:1378   */\n    tag_18:\n        /* \"#utility.yul\":1249:1253   */\n      0x00\n        /* \"#utility.yul\":1287:1289   */\n      0x20\n        /* \"#utility.yul\":1276:1285   */\n      dup3\n        /* \"#utility.yul\":1272:1290   */\n      add\n        /* \"#utility.yul\":1264:1290   */\n      swap1\n      pop\n        /* \"#utility.yul\":1300:1371   */\n      tag_52\n        /* \"#utility.yul\":1368:1369   */\n      0x00\n        /* \"#utility.yul\":1357:1366   */\n      dup4\n        /* \"#utility.yul\":1353:1370   */\n      add\n        /* \"#utility.yul\":1344:1350   */\n      dup5\n        /* \"#utility.yul\":1300:1371   */\n      tag_34\n      jump\t// in\n    tag_52:\n        /* \"#utility.yul\":1156:1378   */\n      swap3\n      swap2\n      pop\n      pop\n      jump\t// out\n\n    auxdata: 0xa2646970667358221220545ce89b6e0528e0a4305f8cdf59af62ba875471ac6b2942cd3a956cf4efb46e64736f6c63430008110033\n}\n",
				"bytecode": {
					"linkReferences": {},
					"object": "608060405260008060006101000a81548160ff0219169083600281111561002957610028610046565b5b02179055506103e860015534801561004057600080fd5b50610075565b7f4e487b7100000000000000000000000000000000000000000000000000000000600052602160045260246000fd5b610224806100846000396000f3fe608060405234801561001057600080fd5b506004361061004c5760003560e01c80631aa356101461005157806363fe59a51461006f5780638da5cb5b14610079578063ba13a57214610083575b600080fd5b6100596100a1565b604051610066919061019f565b60405180910390f35b6100776100b2565b005b6100816100de565b005b61008b610122565b60405161009891906101d3565b60405180910390f35b60008054906101000a900460ff1681565b60016000806101000a81548160ff021916908360028111156100d7576100d6610128565b5b0217905550565b600060028111156100f2576100f1610128565b5b60008054906101000a900460ff16600281111561011257610111610128565b5b036101205760006001819055505b565b60015481565b7f4e487b7100000000000000000000000000000000000000000000000000000000600052602160045260246000fd5b6003811061016857610167610128565b5b50565b600081905061017982610157565b919050565b60006101898261016b565b9050919050565b6101998161017e565b82525050565b60006020820190506101b46000830184610190565b92915050565b6000819050919050565b6101cd816101ba565b82525050565b60006020820190506101e860008301846101c4565b9291505056fea2646970667358221220545ce89b6e0528e0a4305f8cdf59af62ba875471ac6b2942cd3a956cf4efb46e64736f6c63430008110033",
					"opcodes": "PUSH1 0x80 PUSH1 0x40 MSTORE PUSH1 0x0 DUP1 PUSH1 0x0 PUSH2 0x100 EXP DUP2 SLOAD DUP2 PUSH1 0xFF MUL NOT AND SWAP1 DUP4 PUSH1 0x2 DUP2 GT ISZERO PUSH2 0x29 JUMPI PUSH2 0x28 PUSH2 0x46 JUMP JUMPDEST JUMPDEST MUL OR SWAP1 SSTORE POP PUSH2 0x3E8 PUSH1 0x1 SSTORE CALLVALUE DUP1 ISZERO PUSH2 0x40 JUMPI PUSH1 0x0 DUP1 REVERT JUMPDEST POP PUSH2 0x75 JUMP JUMPDEST PUSH32 0x4E487B7100000000000000000000000000000000000000000000000000000000 PUSH1 0x0 MSTORE PUSH1 0x21 PUSH1 0x4 MSTORE PUSH1 0x24 PUSH1 0x0 REVERT JUMPDEST PUSH2 0x224 DUP1 PUSH2 0x84 PUSH1 0x0 CODECOPY PUSH1 0x0 RETURN INVALID PUSH1 0x80 PUSH1 0x40 MSTORE CALLVALUE DUP1 ISZERO PUSH2 0x10 JUMPI PUSH1 0x0 DUP1 REVERT JUMPDEST POP PUSH1 0x4 CALLDATASIZE LT PUSH2 0x4C JUMPI PUSH1 0x0 CALLDATALOAD PUSH1 0xE0 SHR DUP1 PUSH4 0x1AA35610 EQ PUSH2 0x51 JUMPI DUP1 PUSH4 0x63FE59A5 EQ PUSH2 0x6F JUMPI DUP1 PUSH4 0x8DA5CB5B EQ PUSH2 0x79 JUMPI DUP1 PUSH4 0xBA13A572 EQ PUSH2 0x83 JUMPI JUMPDEST PUSH1 0x0 DUP1 REVERT JUMPDEST PUSH2 0x59 PUSH2 0xA1 JUMP JUMPDEST PUSH1 0x40 MLOAD PUSH2 0x66 SWAP2 SWAP1 PUSH2 0x19F JUMP JUMPDEST PUSH1 0x40 MLOAD DUP1 SWAP2 SUB SWAP1 RETURN JUMPDEST PUSH2 0x77 PUSH2 0xB2 JUMP JUMPDEST STOP JUMPDEST PUSH2 0x81 PUSH2 0xDE JUMP JUMPDEST STOP JUMPDEST PUSH2 0x8B PUSH2 0x122 JUMP JUMPDEST PUSH1 0x40 MLOAD PUSH2 0x98 SWAP2 SWAP1 PUSH2 0x1D3 JUMP JUMPDEST PUSH1 0x40 MLOAD DUP1 SWAP2 SUB SWAP1 RETURN JUMPDEST PUSH1 0x0 DUP1 SLOAD SWAP1 PUSH2 0x100 EXP SWAP1 DIV PUSH1 0xFF AND DUP2 JUMP JUMPDEST PUSH1 0x1 PUSH1 0x0 DUP1 PUSH2 0x100 EXP DUP2 SLOAD DUP2 PUSH1 0xFF MUL NOT AND SWAP1 DUP4 PUSH1 0x2 DUP2 GT ISZERO PUSH2 0xD7 JUMPI PUSH2 0xD6 PUSH2 0x128 JUMP JUMPDEST JUMPDEST MUL OR SWAP1 SSTORE POP JUMP JUMPDEST PUSH1 0x0 PUSH1 0x2 DUP2 GT ISZERO PUSH2 0xF2 JUMPI PUSH2 0xF1 PUSH2 0x128 JUMP JUMPDEST JUMPDEST PUSH1 0x0 DUP1 SLOAD SWAP1 PUSH2 0x100 EXP SWAP1 DIV PUSH1 0xFF AND PUSH1 0x2 DUP2 GT ISZERO PUSH2 0x112 JUMPI PUSH2 0x111 PUSH2 0x128 JUMP JUMPDEST JUMPDEST SUB PUSH2 0x120 JUMPI PUSH1 0x0 PUSH1 0x1 DUP2 SWAP1 SSTORE POP JUMPDEST JUMP JUMPDEST PUSH1 0x1 SLOAD DUP2 JUMP JUMPDEST PUSH32 0x4E487B7100000000000000000000000000000000000000000000000000000000 PUSH1 0x0 MSTORE PUSH1 0x21 PUSH1 0x4 MSTORE PUSH1 0x24 PUSH1 0x0 REVERT JUMPDEST PUSH1 0x3 DUP2 LT PUSH2 0x168 JUMPI PUSH2 0x167 PUSH2 0x128 JUMP JUMPDEST JUMPDEST POP JUMP JUMPDEST PUSH1 0x0 DUP2 SWAP1 POP PUSH2 0x179 DUP3 PUSH2 0x157 JUMP JUMPDEST SWAP2 SWAP1 POP JUMP JUMPDEST PUSH1 0x0 PUSH2 0x189 DUP3 PUSH2 0x16B JUMP JUMPDEST SWAP1 POP SWAP2 SWAP1 POP JUMP JUMPDEST PUSH2 0x199 DUP2 PUSH2 0x17E JUMP JUMPDEST DUP3 MSTORE POP POP JUMP JUMPDEST PUSH1 0x0 PUSH1 0x20 DUP3 ADD SWAP1 POP PUSH2 0x1B4 PUSH1 0x0 DUP4 ADD DUP5 PUSH2 0x190 JUMP JUMPDEST SWAP3 SWAP2 POP POP JUMP JUMPDEST PUSH1 0x0 DUP2 SWAP1 POP SWAP2 SWAP1 POP JUMP JUMPDEST PUSH2 0x1CD DUP2 PUSH2 0x1BA JUMP JUMPDEST DUP3 MSTORE POP POP JUMP JUMPDEST PUSH1 0x0 PUSH1 0x20 DUP3 ADD SWAP1 POP PUSH2 0x1E8 PUSH1 0x0 DUP4 ADD DUP5 PUSH2 0x1C4 JUMP JUMPDEST SWAP3 SWAP2 POP POP JUMP INVALID LOG2 PUSH5 0x6970667358 0x22 SLT KECCAK256 SLOAD 0x5C 0xE8 SWAP12 PUSH15 0x528E0A4305F8CDF59AF62BA875471 0xAC PUSH12 0x2942CD3A956CF4EFB46E6473 PUSH16 0x6C634300081100330000000000000000 "
				},
				"gasEstimates": {
					"creation": {
						"codeDepositCost": "109600",
						"executionCost": "46564",
						"totalCost": "156164"
					},
					"external": {
						"lottery()": "2473",
						"owner()": "7388",
						"owner_change()": "24431",
						"u1()": "2535"
					}
				},
				"methodIdentifiers": {
					"lottery()": "ba13a572",
					"owner()": "8da5cb5b",
					"owner_change()": "63fe59a5",
					"u1()": "1aa35610"
				}
			},
			"storageLayout": {
				"storage": [
					{
						"astId": 10,
						"contract": "enum.sol:enumpractise",
						"label": "u1",
						"offset": 0,
						"slot": "0",
						"type": "t_enum(user)5"
					},
					{
						"astId": 13,
						"contract": "enum.sol:enumpractise",
						"label": "lottery",
						"offset": 0,
						"slot": "1",
						"type": "t_uint256"
					}
				],
				"types": {
					"t_enum(user)5": {
						"encoding": "inplace",
						"label": "enum enumpractise.user",
						"numberOfBytes": "1"
					},
					"t_uint256": {
						"encoding": "inplace",
						"label": "uint256",
						"numberOfBytes": "32"
					}
				}
			},
			"userdoc": {
				"kind": "user",
				"methods": {},
				"version": 1
			}
		}
	}
}