{
	"visibility.sol": {
		"c": {
			"abi": [
				{
					"inputs": [],
					"name": "x",
					"outputs": [
						{
							"internalType": "uint256",
							"name": "",
							"type": "uint256"
						}
					],
					"stateMutability": "view",
					"type": "function"
				}
			],
			"devdoc": {
				"kind": "dev",
				"methods": {},
				"version": 1
			},
			"evm": {
				"assembly": "    /* \"visibility.sol\":384:453  contract c{\r... */\n  mstore(0x40, 0x80)\n    /* \"visibility.sol\":411:418  new A() */\n  mload(0x40)\n  tag_1\n  swap1\n  tag_2\n  jump\t// in\ntag_1:\n  mload(0x40)\n  dup1\n  swap2\n  sub\n  swap1\n  0x00\n  create\n  dup1\n  iszero\n  dup1\n  iszero\n  tag_3\n  jumpi\n  returndatasize\n  0x00\n  dup1\n  returndatacopy\n  revert(0x00, returndatasize)\ntag_3:\n  pop\n    /* \"visibility.sol\":403:418  A obj = new A() */\n  0x00\n  dup1\n  0x0100\n  exp\n  dup2\n  sload\n  dup2\n  0xffffffffffffffffffffffffffffffffffffffff\n  mul\n  not\n  and\n  swap1\n  dup4\n  0xffffffffffffffffffffffffffffffffffffffff\n  and\n  mul\n  or\n  swap1\n  sstore\n  pop\n    /* \"visibility.sol\":441:444  obj */\n  0x00\n  dup1\n  sload\n  swap1\n  0x0100\n  exp\n  swap1\n  div\n  0xffffffffffffffffffffffffffffffffffffffff\n  and\n    /* \"visibility.sol\":441:447  obj.f4 */\n  0xffffffffffffffffffffffffffffffffffffffff\n  and\n  0xc3f90202\n    /* \"visibility.sol\":441:449  obj.f4() */\n  mload(0x40)\n  dup2\n  0xffffffff\n  and\n  0xe0\n  shl\n  dup2\n  mstore\n  0x04\n  add\n  0x20\n  mload(0x40)\n  dup1\n  dup4\n  sub\n  dup2\n  dup7\n  dup1\n  extcodesize\n  iszero\n  dup1\n  iszero\n  tag_4\n  jumpi\n  0x00\n  dup1\n  revert\ntag_4:\n  pop\n  gas\n  staticcall\n  iszero\n  dup1\n  iszero\n  tag_6\n  jumpi\n  returndatasize\n  0x00\n  dup1\n  returndatacopy\n  revert(0x00, returndatasize)\ntag_6:\n  pop\n  pop\n  pop\n  pop\n  mload(0x40)\n  returndatasize\n  not(0x1f)\n  0x1f\n  dup3\n  add\n  and\n  dup3\n  add\n  dup1\n  0x40\n  mstore\n  pop\n  dup2\n  add\n  swap1\n  tag_7\n  swap2\n  swap1\n  tag_8\n  jump\t// in\ntag_7:\n    /* \"visibility.sol\":425:449  uint public x = obj.f4() */\n  0x01\n  sstore\n    /* \"visibility.sol\":384:453  contract c{\r... */\n  callvalue\n  dup1\n  iszero\n  tag_9\n  jumpi\n  0x00\n  dup1\n  revert\ntag_9:\n  pop\n  jump(tag_10)\ntag_2:\n  dataSize(sub_1)\n  dup1\n  dataOffset(sub_1)\n  dup4\n  codecopy\n  add\n  swap1\n  jump\t// out\n    /* \"#utility.yul\":7:150   */\ntag_12:\n    /* \"#utility.yul\":64:69   */\n  0x00\n    /* \"#utility.yul\":95:101   */\n  dup2\n    /* \"#utility.yul\":89:102   */\n  mload\n    /* \"#utility.yul\":80:102   */\n  swap1\n  pop\n    /* \"#utility.yul\":111:144   */\n  tag_14\n    /* \"#utility.yul\":138:143   */\n  dup2\n    /* \"#utility.yul\":111:144   */\n  tag_15\n  jump\t// in\ntag_14:\n    /* \"#utility.yul\":7:150   */\n  swap3\n  swap2\n  pop\n  pop\n  jump\t// out\n    /* \"#utility.yul\":156:507   */\ntag_8:\n    /* \"#utility.yul\":226:232   */\n  0x00\n    /* \"#utility.yul\":275:277   */\n  0x20\n    /* \"#utility.yul\":263:272   */\n  dup3\n    /* \"#utility.yul\":254:261   */\n  dup5\n    /* \"#utility.yul\":250:273   */\n  sub\n    /* \"#utility.yul\":246:278   */\n  slt\n    /* \"#utility.yul\":243:362   */\n  iszero\n  tag_17\n  jumpi\n    /* \"#utility.yul\":281:360   */\n  tag_18\n  tag_19\n  jump\t// in\ntag_18:\n    /* \"#utility.yul\":243:362   */\ntag_17:\n    /* \"#utility.yul\":401:402   */\n  0x00\n    /* \"#utility.yul\":426:490   */\n  tag_20\n    /* \"#utility.yul\":482:489   */\n  dup5\n    /* \"#utility.yul\":473:479   */\n  dup3\n    /* \"#utility.yul\":462:471   */\n  dup6\n    /* \"#utility.yul\":458:480   */\n  add\n    /* \"#utility.yul\":426:490   */\n  tag_12\n  jump\t// in\ntag_20:\n    /* \"#utility.yul\":416:490   */\n  swap2\n  pop\n    /* \"#utility.yul\":372:500   */\n  pop\n    /* \"#utility.yul\":156:507   */\n  swap3\n  swap2\n  pop\n  pop\n  jump\t// out\n    /* \"#utility.yul\":594:671   */\ntag_23:\n    /* \"#utility.yul\":631:638   */\n  0x00\n    /* \"#utility.yul\":660:665   */\n  dup2\n    /* \"#utility.yul\":649:665   */\n  swap1\n  pop\n    /* \"#utility.yul\":594:671   */\n  swap2\n  swap1\n  pop\n  jump\t// out\n    /* \"#utility.yul\":800:917   */\ntag_19:\n    /* \"#utility.yul\":909:910   */\n  0x00\n    /* \"#utility.yul\":906:907   */\n  dup1\n    /* \"#utility.yul\":899:911   */\n  revert\n    /* \"#utility.yul\":923:1045   */\ntag_15:\n    /* \"#utility.yul\":996:1020   */\n  tag_29\n    /* \"#utility.yul\":1014:1019   */\n  dup2\n    /* \"#utility.yul\":996:1020   */\n  tag_23\n  jump\t// in\ntag_29:\n    /* \"#utility.yul\":989:994   */\n  dup2\n    /* \"#utility.yul\":986:1021   */\n  eq\n    /* \"#utility.yul\":976:1039   */\n  tag_30\n  jumpi\n    /* \"#utility.yul\":1035:1036   */\n  0x00\n    /* \"#utility.yul\":1032:1033   */\n  dup1\n    /* \"#utility.yul\":1025:1037   */\n  revert\n    /* \"#utility.yul\":976:1039   */\ntag_30:\n    /* \"#utility.yul\":923:1045   */\n  pop\n  jump\t// out\n    /* \"visibility.sol\":384:453  contract c{\r... */\ntag_10:\n  dataSize(sub_0)\n  dup1\n  dataOffset(sub_0)\n  0x00\n  codecopy\n  0x00\n  return\nstop\n\nsub_0: assembly {\n        /* \"visibility.sol\":384:453  contract c{\r... */\n      mstore(0x40, 0x80)\n      callvalue\n      dup1\n      iszero\n      tag_1\n      jumpi\n      0x00\n      dup1\n      revert\n    tag_1:\n      pop\n      jumpi(tag_2, lt(calldatasize, 0x04))\n      shr(0xe0, calldataload(0x00))\n      dup1\n      0x0c55699c\n      eq\n      tag_3\n      jumpi\n    tag_2:\n      0x00\n      dup1\n      revert\n        /* \"visibility.sol\":425:449  uint public x = obj.f4() */\n    tag_3:\n      tag_4\n      tag_5\n      jump\t// in\n    tag_4:\n      mload(0x40)\n      tag_6\n      swap2\n      swap1\n      tag_7\n      jump\t// in\n    tag_6:\n      mload(0x40)\n      dup1\n      swap2\n      sub\n      swap1\n      return\n    tag_5:\n      sload(0x01)\n      dup2\n      jump\t// out\n        /* \"#utility.yul\":7:125   */\n    tag_9:\n        /* \"#utility.yul\":94:118   */\n      tag_11\n        /* \"#utility.yul\":112:117   */\n      dup2\n        /* \"#utility.yul\":94:118   */\n      tag_12\n      jump\t// in\n    tag_11:\n        /* \"#utility.yul\":89:92   */\n      dup3\n        /* \"#utility.yul\":82:119   */\n      mstore\n        /* \"#utility.yul\":7:125   */\n      pop\n      pop\n      jump\t// out\n        /* \"#utility.yul\":131:353   */\n    tag_7:\n        /* \"#utility.yul\":224:228   */\n      0x00\n        /* \"#utility.yul\":262:264   */\n      0x20\n        /* \"#utility.yul\":251:260   */\n      dup3\n        /* \"#utility.yul\":247:265   */\n      add\n        /* \"#utility.yul\":239:265   */\n      swap1\n      pop\n        /* \"#utility.yul\":275:346   */\n      tag_14\n        /* \"#utility.yul\":343:344   */\n      0x00\n        /* \"#utility.yul\":332:341   */\n      dup4\n        /* \"#utility.yul\":328:345   */\n      add\n        /* \"#utility.yul\":319:325   */\n      dup5\n        /* \"#utility.yul\":275:346   */\n      tag_9\n      jump\t// in\n    tag_14:\n        /* \"#utility.yul\":131:353   */\n      swap3\n      swap2\n      pop\n      pop\n      jump\t// out\n        /* \"#utility.yul\":359:436   */\n    tag_12:\n        /* \"#utility.yul\":396:403   */\n      0x00\n        /* \"#utility.yul\":425:430   */\n      dup2\n        /* \"#utility.yul\":414:430   */\n      swap1\n      pop\n        /* \"#utility.yul\":359:436   */\n      swap2\n      swap1\n      pop\n      jump\t// out\n\n    auxdata: 0xa2646970667358221220b67c8839cc1d21241f85fa14fd6739d9c866976a311543b214c973d64fd1a13d64736f6c63430008070033\n}\n\nsub_1: assembly {\n        /* \"visibility.sol\":36:351  contract A{\r... */\n      mstore(0x40, 0x80)\n      callvalue\n      dup1\n      iszero\n      tag_1\n      jumpi\n      0x00\n      dup1\n      revert\n    tag_1:\n      pop\n      dataSize(sub_0)\n      dup1\n      dataOffset(sub_0)\n      0x00\n      codecopy\n      0x00\n      return\n    stop\n\n    sub_0: assembly {\n            /* \"visibility.sol\":36:351  contract A{\r... */\n          mstore(0x40, 0x80)\n          callvalue\n          dup1\n          iszero\n          tag_1\n          jumpi\n          0x00\n          dup1\n          revert\n        tag_1:\n          pop\n          jumpi(tag_2, lt(calldatasize, 0x04))\n          shr(0xe0, calldataload(0x00))\n          dup1\n          0xc27fc305\n          eq\n          tag_3\n          jumpi\n          dup1\n          0xc3f90202\n          eq\n          tag_4\n          jumpi\n        tag_2:\n          0x00\n          dup1\n          revert\n            /* \"visibility.sol\":55:121  function f1() public pure returns(uint){\r... */\n        tag_3:\n          tag_5\n          tag_6\n          jump\t// in\n        tag_5:\n          mload(0x40)\n          tag_7\n          swap2\n          swap1\n          tag_8\n          jump\t// in\n        tag_7:\n          mload(0x40)\n          dup1\n          swap2\n          sub\n          swap1\n          return\n            /* \"visibility.sol\":280:348  function f4() external pure returns(uint){\r... */\n        tag_4:\n          tag_9\n          tag_10\n          jump\t// in\n        tag_9:\n          mload(0x40)\n          tag_11\n          swap2\n          swap1\n          tag_8\n          jump\t// in\n        tag_11:\n          mload(0x40)\n          dup1\n          swap2\n          sub\n          swap1\n          return\n            /* \"visibility.sol\":55:121  function f1() public pure returns(uint){\r... */\n        tag_6:\n            /* \"visibility.sol\":89:93  uint */\n          0x00\n            /* \"visibility.sol\":112:113  1 */\n          0x01\n            /* \"visibility.sol\":105:113  return 1 */\n          swap1\n          pop\n            /* \"visibility.sol\":55:121  function f1() public pure returns(uint){\r... */\n          swap1\n          jump\t// out\n            /* \"visibility.sol\":280:348  function f4() external pure returns(uint){\r... */\n        tag_10:\n            /* \"visibility.sol\":316:320  uint */\n          0x00\n            /* \"visibility.sol\":339:340  4 */\n          0x04\n            /* \"visibility.sol\":332:340  return 4 */\n          swap1\n          pop\n            /* \"visibility.sol\":280:348  function f4() external pure returns(uint){\r... */\n          swap1\n          jump\t// out\n            /* \"#utility.yul\":7:125   */\n        tag_15:\n            /* \"#utility.yul\":94:118   */\n          tag_17\n            /* \"#utility.yul\":112:117   */\n          dup2\n            /* \"#utility.yul\":94:118   */\n          tag_18\n          jump\t// in\n        tag_17:\n            /* \"#utility.yul\":89:92   */\n          dup3\n            /* \"#utility.yul\":82:119   */\n          mstore\n            /* \"#utility.yul\":7:125   */\n          pop\n          pop\n          jump\t// out\n            /* \"#utility.yul\":131:353   */\n        tag_8:\n            /* \"#utility.yul\":224:228   */\n          0x00\n            /* \"#utility.yul\":262:264   */\n          0x20\n            /* \"#utility.yul\":251:260   */\n          dup3\n            /* \"#utility.yul\":247:265   */\n          add\n            /* \"#utility.yul\":239:265   */\n          swap1\n          pop\n            /* \"#utility.yul\":275:346   */\n          tag_20\n            /* \"#utility.yul\":343:344   */\n          0x00\n            /* \"#utility.yul\":332:341   */\n          dup4\n            /* \"#utility.yul\":328:345   */\n          add\n            /* \"#utility.yul\":319:325   */\n          dup5\n            /* \"#utility.yul\":275:346   */\n          tag_15\n          jump\t// in\n        tag_20:\n            /* \"#utility.yul\":131:353   */\n          swap3\n          swap2\n          pop\n          pop\n          jump\t// out\n            /* \"#utility.yul\":359:436   */\n        tag_18:\n            /* \"#utility.yul\":396:403   */\n          0x00\n            /* \"#utility.yul\":425:430   */\n          dup2\n            /* \"#utility.yul\":414:430   */\n          swap1\n          pop\n            /* \"#utility.yul\":359:436   */\n          swap2\n          swap1\n          pop\n          jump\t// out\n\n        auxdata: 0xa2646970667358221220559b280516db0f3f215ce5efd0ac86b5c24becac0c472f18c34b79619ea6342664736f6c63430008070033\n    }\n}\n",
				"bytecode": {
					"linkReferences": {},
					"object": "60806040526040516100109061011f565b604051809103906000f08015801561002c573d6000803e3d6000fd5b506000806101000a81548173ffffffffffffffffffffffffffffffffffffffff021916908373ffffffffffffffffffffffffffffffffffffffff16021790555060008054906101000a900473ffffffffffffffffffffffffffffffffffffffff1673ffffffffffffffffffffffffffffffffffffffff1663c3f902026040518163ffffffff1660e01b815260040160206040518083038186803b1580156100d257600080fd5b505afa1580156100e6573d6000803e3d6000fd5b505050506040513d601f19601f8201168201806040525081019061010a9190610141565b60015534801561011957600080fd5b50610194565b6101028061025583390190565b60008151905061013b8161017d565b92915050565b60006020828403121561015757610156610178565b5b60006101658482850161012c565b91505092915050565b6000819050919050565b600080fd5b6101868161016e565b811461019157600080fd5b50565b60b3806101a26000396000f3fe6080604052348015600f57600080fd5b506004361060285760003560e01c80630c55699c14602d575b600080fd5b60336047565b604051603e9190605a565b60405180910390f35b60015481565b6054816073565b82525050565b6000602082019050606d6000830184604d565b92915050565b600081905091905056fea2646970667358221220b67c8839cc1d21241f85fa14fd6739d9c866976a311543b214c973d64fd1a13d64736f6c63430008070033608060405234801561001057600080fd5b5060e38061001f6000396000f3fe6080604052348015600f57600080fd5b506004361060325760003560e01c8063c27fc305146037578063c3f90202146051575b600080fd5b603d606b565b60405160489190608a565b60405180910390f35b60576074565b60405160629190608a565b60405180910390f35b60006001905090565b60006004905090565b60848160a3565b82525050565b6000602082019050609d6000830184607d565b92915050565b600081905091905056fea2646970667358221220559b280516db0f3f215ce5efd0ac86b5c24becac0c472f18c34b79619ea6342664736f6c63430008070033",
					"opcodes": "PUSH1 0x80 PUSH1 0x40 MSTORE PUSH1 0x40 MLOAD PUSH2 0x10 SWAP1 PUSH2 0x11F JUMP JUMPDEST PUSH1 0x40 MLOAD DUP1 SWAP2 SUB SWAP1 PUSH1 0x0 CREATE DUP1 ISZERO DUP1 ISZERO PUSH2 0x2C JUMPI RETURNDATASIZE PUSH1 0x0 DUP1 RETURNDATACOPY RETURNDATASIZE PUSH1 0x0 REVERT JUMPDEST POP PUSH1 0x0 DUP1 PUSH2 0x100 EXP DUP2 SLOAD DUP2 PUSH20 0xFFFFFFFFFFFFFFFFFFFFFFFFFFFFFFFFFFFFFFFF MUL NOT AND SWAP1 DUP4 PUSH20 0xFFFFFFFFFFFFFFFFFFFFFFFFFFFFFFFFFFFFFFFF AND MUL OR SWAP1 SSTORE POP PUSH1 0x0 DUP1 SLOAD SWAP1 PUSH2 0x100 EXP SWAP1 DIV PUSH20 0xFFFFFFFFFFFFFFFFFFFFFFFFFFFFFFFFFFFFFFFF AND PUSH20 0xFFFFFFFFFFFFFFFFFFFFFFFFFFFFFFFFFFFFFFFF AND PUSH4 0xC3F90202 PUSH1 0x40 MLOAD DUP2 PUSH4 0xFFFFFFFF AND PUSH1 0xE0 SHL DUP2 MSTORE PUSH1 0x4 ADD PUSH1 0x20 PUSH1 0x40 MLOAD DUP1 DUP4 SUB DUP2 DUP7 DUP1 EXTCODESIZE ISZERO DUP1 ISZERO PUSH2 0xD2 JUMPI PUSH1 0x0 DUP1 REVERT JUMPDEST POP GAS STATICCALL ISZERO DUP1 ISZERO PUSH2 0xE6 JUMPI RETURNDATASIZE PUSH1 0x0 DUP1 RETURNDATACOPY RETURNDATASIZE PUSH1 0x0 REVERT JUMPDEST POP POP POP POP PUSH1 0x40 MLOAD RETURNDATASIZE PUSH1 0x1F NOT PUSH1 0x1F DUP3 ADD AND DUP3 ADD DUP1 PUSH1 0x40 MSTORE POP DUP2 ADD SWAP1 PUSH2 0x10A SWAP2 SWAP1 PUSH2 0x141 JUMP JUMPDEST PUSH1 0x1 SSTORE CALLVALUE DUP1 ISZERO PUSH2 0x119 JUMPI PUSH1 0x0 DUP1 REVERT JUMPDEST POP PUSH2 0x194 JUMP JUMPDEST PUSH2 0x102 DUP1 PUSH2 0x255 DUP4 CODECOPY ADD SWAP1 JUMP JUMPDEST PUSH1 0x0 DUP2 MLOAD SWAP1 POP PUSH2 0x13B DUP2 PUSH2 0x17D JUMP JUMPDEST SWAP3 SWAP2 POP POP JUMP JUMPDEST PUSH1 0x0 PUSH1 0x20 DUP3 DUP5 SUB SLT ISZERO PUSH2 0x157 JUMPI PUSH2 0x156 PUSH2 0x178 JUMP JUMPDEST JUMPDEST PUSH1 0x0 PUSH2 0x165 DUP5 DUP3 DUP6 ADD PUSH2 0x12C JUMP JUMPDEST SWAP2 POP POP SWAP3 SWAP2 POP POP JUMP JUMPDEST PUSH1 0x0 DUP2 SWAP1 POP SWAP2 SWAP1 POP JUMP JUMPDEST PUSH1 0x0 DUP1 REVERT JUMPDEST PUSH2 0x186 DUP2 PUSH2 0x16E JUMP JUMPDEST DUP2 EQ PUSH2 0x191 JUMPI PUSH1 0x0 DUP1 REVERT JUMPDEST POP JUMP JUMPDEST PUSH1 0xB3 DUP1 PUSH2 0x1A2 PUSH1 0x0 CODECOPY PUSH1 0x0 RETURN INVALID PUSH1 0x80 PUSH1 0x40 MSTORE CALLVALUE DUP1 ISZERO PUSH1 0xF JUMPI PUSH1 0x0 DUP1 REVERT JUMPDEST POP PUSH1 0x4 CALLDATASIZE LT PUSH1 0x28 JUMPI PUSH1 0x0 CALLDATALOAD PUSH1 0xE0 SHR DUP1 PUSH4 0xC55699C EQ PUSH1 0x2D JUMPI JUMPDEST PUSH1 0x0 DUP1 REVERT JUMPDEST PUSH1 0x33 PUSH1 0x47 JUMP JUMPDEST PUSH1 0x40 MLOAD PUSH1 0x3E SWAP2 SWAP1 PUSH1 0x5A JUMP JUMPDEST PUSH1 0x40 MLOAD DUP1 SWAP2 SUB SWAP1 RETURN JUMPDEST PUSH1 0x1 SLOAD DUP2 JUMP JUMPDEST PUSH1 0x54 DUP2 PUSH1 0x73 JUMP JUMPDEST DUP3 MSTORE POP POP JUMP JUMPDEST PUSH1 0x0 PUSH1 0x20 DUP3 ADD SWAP1 POP PUSH1 0x6D PUSH1 0x0 DUP4 ADD DUP5 PUSH1 0x4D JUMP JUMPDEST SWAP3 SWAP2 POP POP JUMP JUMPDEST PUSH1 0x0 DUP2 SWAP1 POP SWAP2 SWAP1 POP JUMP INVALID LOG2 PUSH5 0x6970667358 0x22 SLT KECCAK256 0xB6 PUSH29 0x8839CC1D21241F85FA14FD6739D9C866976A311543B214C973D64FD1A1 RETURNDATASIZE PUSH5 0x736F6C6343 STOP ADDMOD SMOD STOP CALLER PUSH1 0x80 PUSH1 0x40 MSTORE CALLVALUE DUP1 ISZERO PUSH2 0x10 JUMPI PUSH1 0x0 DUP1 REVERT JUMPDEST POP PUSH1 0xE3 DUP1 PUSH2 0x1F PUSH1 0x0 CODECOPY PUSH1 0x0 RETURN INVALID PUSH1 0x80 PUSH1 0x40 MSTORE CALLVALUE DUP1 ISZERO PUSH1 0xF JUMPI PUSH1 0x0 DUP1 REVERT JUMPDEST POP PUSH1 0x4 CALLDATASIZE LT PUSH1 0x32 JUMPI PUSH1 0x0 CALLDATALOAD PUSH1 0xE0 SHR DUP1 PUSH4 0xC27FC305 EQ PUSH1 0x37 JUMPI DUP1 PUSH4 0xC3F90202 EQ PUSH1 0x51 JUMPI JUMPDEST PUSH1 0x0 DUP1 REVERT JUMPDEST PUSH1 0x3D PUSH1 0x6B JUMP JUMPDEST PUSH1 0x40 MLOAD PUSH1 0x48 SWAP2 SWAP1 PUSH1 0x8A JUMP JUMPDEST PUSH1 0x40 MLOAD DUP1 SWAP2 SUB SWAP1 RETURN JUMPDEST PUSH1 0x57 PUSH1 0x74 JUMP JUMPDEST PUSH1 0x40 MLOAD PUSH1 0x62 SWAP2 SWAP1 PUSH1 0x8A JUMP JUMPDEST PUSH1 0x40 MLOAD DUP1 SWAP2 SUB SWAP1 RETURN JUMPDEST PUSH1 0x0 PUSH1 0x1 SWAP1 POP SWAP1 JUMP JUMPDEST PUSH1 0x0 PUSH1 0x4 SWAP1 POP SWAP1 JUMP JUMPDEST PUSH1 0x84 DUP2 PUSH1 0xA3 JUMP JUMPDEST DUP3 MSTORE POP POP JUMP JUMPDEST PUSH1 0x0 PUSH1 0x20 DUP3 ADD SWAP1 POP PUSH1 0x9D PUSH1 0x0 DUP4 ADD DUP5 PUSH1 0x7D JUMP JUMPDEST SWAP3 SWAP2 POP POP JUMP JUMPDEST PUSH1 0x0 DUP2 SWAP1 POP SWAP2 SWAP1 POP JUMP INVALID LOG2 PUSH5 0x6970667358 0x22 SLT KECCAK256 SSTORE SWAP12 0x28 SDIV AND 0xDB 0xF EXTCODEHASH 0x21 0x5C 0xE5 0xEF 0xD0 0xAC DUP7 0xB5 0xC2 0x4B 0xEC 0xAC 0xC SELFBALANCE 0x2F XOR 0xC3 0x4B PUSH26 0x619EA6342664736F6C6343000807003300000000000000000000 "
				},
				"gasEstimates": {
					"creation": {
						"codeDepositCost": "35800",
						"executionCost": "infinite",
						"totalCost": "infinite"
					},
					"external": {
						"x()": "2407"
					}
				},
				"methodIdentifiers": {
					"x()": "0c55699c"
				}
			},
			"storageLayout": {
				"storage": [
					{
						"astId": 44,
						"contract": "visibility.sol:c",
						"label": "obj",
						"offset": 0,
						"slot": "0",
						"type": "t_contract(A)34"
					},
					{
						"astId": 49,
						"contract": "visibility.sol:c",
						"label": "x",
						"offset": 0,
						"slot": "1",
						"type": "t_uint256"
					}
				],
				"types": {
					"t_contract(A)34": {
						"encoding": "inplace",
						"label": "contract A",
						"numberOfBytes": "20"
					},
					"t_uint256": {
						"encoding": "inplace",
						"label": "uint256",
						"numberOfBytes": "32"
					}
				}
			},
			"userdoc": {
				"kind": "user",
				"methods": {},
				"version": 1
			}
		}
	}
}