{
	"booleans.sol": {
		"boolean": {
			"abi": [
				{
					"inputs": [
						{
							"internalType": "int256",
							"name": "a",
							"type": "int256"
						}
					],
					"name": "check",
					"outputs": [
						{
							"internalType": "bool",
							"name": "",
							"type": "bool"
						}
					],
					"stateMutability": "pure",
					"type": "function"
				}
			],
			"devdoc": {
				"kind": "dev",
				"methods": {},
				"version": 1
			},
			"evm": {
				"assembly": "    /* \"booleans.sol\":36:266  contract boolean{\r... */\n  mstore(0x40, 0x80)\n  callvalue\n  dup1\n  iszero\n  tag_1\n  jumpi\n  0x00\n  dup1\n  revert\ntag_1:\n  pop\n  dataSize(sub_0)\n  dup1\n  dataOffset(sub_0)\n  0x00\n  codecopy\n  0x00\n  return\nstop\n\nsub_0: assembly {\n        /* \"booleans.sol\":36:266  contract boolean{\r... */\n      mstore(0x40, 0x80)\n      callvalue\n      dup1\n      iszero\n      tag_1\n      jumpi\n      0x00\n      dup1\n      revert\n    tag_1:\n      pop\n      jumpi(tag_2, lt(calldatasize, 0x04))\n      shr(0xe0, calldataload(0x00))\n      dup1\n      0x9943d669\n      eq\n      tag_3\n      jumpi\n    tag_2:\n      0x00\n      dup1\n      revert\n        /* \"booleans.sol\":61:263  function check(int a) public pure returns(bool){\r... */\n    tag_3:\n      tag_4\n      0x04\n      dup1\n      calldatasize\n      sub\n      dup2\n      add\n      swap1\n      tag_5\n      swap2\n      swap1\n      tag_6\n      jump\t// in\n    tag_5:\n      tag_7\n      jump\t// in\n    tag_4:\n      mload(0x40)\n      tag_8\n      swap2\n      swap1\n      tag_9\n      jump\t// in\n    tag_8:\n      mload(0x40)\n      dup1\n      swap2\n      sub\n      swap1\n      return\n    tag_7:\n        /* \"booleans.sol\":103:107  bool */\n      0x00\n        /* \"booleans.sol\":121:130  bool hehe */\n      dup1\n        /* \"booleans.sol\":148:149  0 */\n      0x00\n        /* \"booleans.sol\":146:147  a */\n      dup4\n        /* \"booleans.sol\":146:149  a>0 */\n      sgt\n        /* \"booleans.sol\":143:232  if(a>0){\r... */\n      iszero\n      tag_11\n      jumpi\n        /* \"booleans.sol\":172:176  true */\n      0x01\n        /* \"booleans.sol\":165:176  hehe = true */\n      swap1\n      pop\n        /* \"booleans.sol\":143:232  if(a>0){\r... */\n      jump(tag_12)\n    tag_11:\n        /* \"booleans.sol\":215:220  false */\n      0x00\n        /* \"booleans.sol\":208:220  hehe = false */\n      swap1\n      pop\n        /* \"booleans.sol\":143:232  if(a>0){\r... */\n    tag_12:\n        /* \"booleans.sol\":251:255  hehe */\n      dup1\n        /* \"booleans.sol\":244:255  return hehe */\n      swap2\n      pop\n      pop\n        /* \"booleans.sol\":61:263  function check(int a) public pure returns(bool){\r... */\n      swap2\n      swap1\n      pop\n      jump\t// out\n        /* \"#utility.yul\":7:144   */\n    tag_14:\n        /* \"#utility.yul\":52:57   */\n      0x00\n        /* \"#utility.yul\":90:96   */\n      dup2\n        /* \"#utility.yul\":77:97   */\n      calldataload\n        /* \"#utility.yul\":68:97   */\n      swap1\n      pop\n        /* \"#utility.yul\":106:138   */\n      tag_16\n        /* \"#utility.yul\":132:137   */\n      dup2\n        /* \"#utility.yul\":106:138   */\n      tag_17\n      jump\t// in\n    tag_16:\n        /* \"#utility.yul\":7:144   */\n      swap3\n      swap2\n      pop\n      pop\n      jump\t// out\n        /* \"#utility.yul\":150:477   */\n    tag_6:\n        /* \"#utility.yul\":208:214   */\n      0x00\n        /* \"#utility.yul\":257:259   */\n      0x20\n        /* \"#utility.yul\":245:254   */\n      dup3\n        /* \"#utility.yul\":236:243   */\n      dup5\n        /* \"#utility.yul\":232:255   */\n      sub\n        /* \"#utility.yul\":228:260   */\n      slt\n        /* \"#utility.yul\":225:344   */\n      iszero\n      tag_19\n      jumpi\n        /* \"#utility.yul\":263:342   */\n      tag_20\n      tag_21\n      jump\t// in\n    tag_20:\n        /* \"#utility.yul\":225:344   */\n    tag_19:\n        /* \"#utility.yul\":383:384   */\n      0x00\n        /* \"#utility.yul\":408:460   */\n      tag_22\n        /* \"#utility.yul\":452:459   */\n      dup5\n        /* \"#utility.yul\":443:449   */\n      dup3\n        /* \"#utility.yul\":432:441   */\n      dup6\n        /* \"#utility.yul\":428:450   */\n      add\n        /* \"#utility.yul\":408:460   */\n      tag_14\n      jump\t// in\n    tag_22:\n        /* \"#utility.yul\":398:460   */\n      swap2\n      pop\n        /* \"#utility.yul\":354:470   */\n      pop\n        /* \"#utility.yul\":150:477   */\n      swap3\n      swap2\n      pop\n      pop\n      jump\t// out\n        /* \"#utility.yul\":483:592   */\n    tag_23:\n        /* \"#utility.yul\":564:585   */\n      tag_25\n        /* \"#utility.yul\":579:584   */\n      dup2\n        /* \"#utility.yul\":564:585   */\n      tag_26\n      jump\t// in\n    tag_25:\n        /* \"#utility.yul\":559:562   */\n      dup3\n        /* \"#utility.yul\":552:586   */\n      mstore\n        /* \"#utility.yul\":483:592   */\n      pop\n      pop\n      jump\t// out\n        /* \"#utility.yul\":598:808   */\n    tag_9:\n        /* \"#utility.yul\":685:689   */\n      0x00\n        /* \"#utility.yul\":723:725   */\n      0x20\n        /* \"#utility.yul\":712:721   */\n      dup3\n        /* \"#utility.yul\":708:726   */\n      add\n        /* \"#utility.yul\":700:726   */\n      swap1\n      pop\n        /* \"#utility.yul\":736:801   */\n      tag_28\n        /* \"#utility.yul\":798:799   */\n      0x00\n        /* \"#utility.yul\":787:796   */\n      dup4\n        /* \"#utility.yul\":783:800   */\n      add\n        /* \"#utility.yul\":774:780   */\n      dup5\n        /* \"#utility.yul\":736:801   */\n      tag_23\n      jump\t// in\n    tag_28:\n        /* \"#utility.yul\":598:808   */\n      swap3\n      swap2\n      pop\n      pop\n      jump\t// out\n        /* \"#utility.yul\":895:985   */\n    tag_26:\n        /* \"#utility.yul\":929:936   */\n      0x00\n        /* \"#utility.yul\":972:977   */\n      dup2\n        /* \"#utility.yul\":965:978   */\n      iszero\n        /* \"#utility.yul\":958:979   */\n      iszero\n        /* \"#utility.yul\":947:979   */\n      swap1\n      pop\n        /* \"#utility.yul\":895:985   */\n      swap2\n      swap1\n      pop\n      jump\t// out\n        /* \"#utility.yul\":991:1067   */\n    tag_32:\n        /* \"#utility.yul\":1027:1034   */\n      0x00\n        /* \"#utility.yul\":1056:1061   */\n      dup2\n        /* \"#utility.yul\":1045:1061   */\n      swap1\n      pop\n        /* \"#utility.yul\":991:1067   */\n      swap2\n      swap1\n      pop\n      jump\t// out\n        /* \"#utility.yul\":1196:1313   */\n    tag_21:\n        /* \"#utility.yul\":1305:1306   */\n      0x00\n        /* \"#utility.yul\":1302:1303   */\n      dup1\n        /* \"#utility.yul\":1295:1307   */\n      revert\n        /* \"#utility.yul\":1319:1439   */\n    tag_17:\n        /* \"#utility.yul\":1391:1414   */\n      tag_38\n        /* \"#utility.yul\":1408:1413   */\n      dup2\n        /* \"#utility.yul\":1391:1414   */\n      tag_32\n      jump\t// in\n    tag_38:\n        /* \"#utility.yul\":1384:1389   */\n      dup2\n        /* \"#utility.yul\":1381:1415   */\n      eq\n        /* \"#utility.yul\":1371:1433   */\n      tag_39\n      jumpi\n        /* \"#utility.yul\":1429:1430   */\n      0x00\n        /* \"#utility.yul\":1426:1427   */\n      dup1\n        /* \"#utility.yul\":1419:1431   */\n      revert\n        /* \"#utility.yul\":1371:1433   */\n    tag_39:\n        /* \"#utility.yul\":1319:1439   */\n      pop\n      jump\t// out\n\n    auxdata: 0xa264697066735822122006936cd679c6e64526f5fd7696fd42fc649f2f2b40d0792ce9191ccf3289eca664736f6c63430008070033\n}\n",
				"bytecode": {
					"linkReferences": {},
					"object": "608060405234801561001057600080fd5b50610157806100206000396000f3fe608060405234801561001057600080fd5b506004361061002b5760003560e01c80639943d66914610030575b600080fd5b61004a60048036038101906100459190610098565b610060565b60405161005791906100d4565b60405180910390f35b6000806000831315610075576001905061007a565b600090505b80915050919050565b6000813590506100928161010a565b92915050565b6000602082840312156100ae576100ad610105565b5b60006100bc84828501610083565b91505092915050565b6100ce816100ef565b82525050565b60006020820190506100e960008301846100c5565b92915050565b60008115159050919050565b6000819050919050565b600080fd5b610113816100fb565b811461011e57600080fd5b5056fea264697066735822122006936cd679c6e64526f5fd7696fd42fc649f2f2b40d0792ce9191ccf3289eca664736f6c63430008070033",
					"opcodes": "PUSH1 0x80 PUSH1 0x40 MSTORE CALLVALUE DUP1 ISZERO PUSH2 0x10 JUMPI PUSH1 0x0 DUP1 REVERT JUMPDEST POP PUSH2 0x157 DUP1 PUSH2 0x20 PUSH1 0x0 CODECOPY PUSH1 0x0 RETURN INVALID PUSH1 0x80 PUSH1 0x40 MSTORE CALLVALUE DUP1 ISZERO PUSH2 0x10 JUMPI PUSH1 0x0 DUP1 REVERT JUMPDEST POP PUSH1 0x4 CALLDATASIZE LT PUSH2 0x2B JUMPI PUSH1 0x0 CALLDATALOAD PUSH1 0xE0 SHR DUP1 PUSH4 0x9943D669 EQ PUSH2 0x30 JUMPI JUMPDEST PUSH1 0x0 DUP1 REVERT JUMPDEST PUSH2 0x4A PUSH1 0x4 DUP1 CALLDATASIZE SUB DUP2 ADD SWAP1 PUSH2 0x45 SWAP2 SWAP1 PUSH2 0x98 JUMP JUMPDEST PUSH2 0x60 JUMP JUMPDEST PUSH1 0x40 MLOAD PUSH2 0x57 SWAP2 SWAP1 PUSH2 0xD4 JUMP JUMPDEST PUSH1 0x40 MLOAD DUP1 SWAP2 SUB SWAP1 RETURN JUMPDEST PUSH1 0x0 DUP1 PUSH1 0x0 DUP4 SGT ISZERO PUSH2 0x75 JUMPI PUSH1 0x1 SWAP1 POP PUSH2 0x7A JUMP JUMPDEST PUSH1 0x0 SWAP1 POP JUMPDEST DUP1 SWAP2 POP POP SWAP2 SWAP1 POP JUMP JUMPDEST PUSH1 0x0 DUP2 CALLDATALOAD SWAP1 POP PUSH2 0x92 DUP2 PUSH2 0x10A JUMP JUMPDEST SWAP3 SWAP2 POP POP JUMP JUMPDEST PUSH1 0x0 PUSH1 0x20 DUP3 DUP5 SUB SLT ISZERO PUSH2 0xAE JUMPI PUSH2 0xAD PUSH2 0x105 JUMP JUMPDEST JUMPDEST PUSH1 0x0 PUSH2 0xBC DUP5 DUP3 DUP6 ADD PUSH2 0x83 JUMP JUMPDEST SWAP2 POP POP SWAP3 SWAP2 POP POP JUMP JUMPDEST PUSH2 0xCE DUP2 PUSH2 0xEF JUMP JUMPDEST DUP3 MSTORE POP POP JUMP JUMPDEST PUSH1 0x0 PUSH1 0x20 DUP3 ADD SWAP1 POP PUSH2 0xE9 PUSH1 0x0 DUP4 ADD DUP5 PUSH2 0xC5 JUMP JUMPDEST SWAP3 SWAP2 POP POP JUMP JUMPDEST PUSH1 0x0 DUP2 ISZERO ISZERO SWAP1 POP SWAP2 SWAP1 POP JUMP JUMPDEST PUSH1 0x0 DUP2 SWAP1 POP SWAP2 SWAP1 POP JUMP JUMPDEST PUSH1 0x0 DUP1 REVERT JUMPDEST PUSH2 0x113 DUP2 PUSH2 0xFB JUMP JUMPDEST DUP2 EQ PUSH2 0x11E JUMPI PUSH1 0x0 DUP1 REVERT JUMPDEST POP JUMP INVALID LOG2 PUSH5 0x6970667358 0x22 SLT KECCAK256 MOD SWAP4 PUSH13 0xD679C6E64526F5FD7696FD42FC PUSH5 0x9F2F2B40D0 PUSH26 0x2CE9191CCF3289ECA664736F6C63430008070033000000000000 "
				},
				"gasEstimates": {
					"creation": {
						"codeDepositCost": "68600",
						"executionCost": "117",
						"totalCost": "68717"
					},
					"external": {
						"check(int256)": "636"
					}
				},
				"methodIdentifiers": {
					"check(int256)": "9943d669"
				}
			},
			"storageLayout": {
				"storage": [],
				"types": null
			},
			"userdoc": {
				"kind": "user",
				"methods": {},
				"version": 1
			}
		}
	}
}