{
	"object.sol": {
		"Book": {
			"abi": [
				{
					"inputs": [
						{
							"internalType": "uint256",
							"name": "_a",
							"type": "uint256"
						}
					],
					"stateMutability": "nonpayable",
					"type": "constructor"
				},
				{
					"inputs": [],
					"name": "getDimension",
					"outputs": [
						{
							"internalType": "uint256",
							"name": "",
							"type": "uint256"
						},
						{
							"internalType": "uint256",
							"name": "",
							"type": "uint256"
						},
						{
							"internalType": "uint256",
							"name": "",
							"type": "uint256"
						}
					],
					"stateMutability": "view",
					"type": "function"
				},
				{
					"inputs": [
						{
							"internalType": "uint256",
							"name": "_length",
							"type": "uint256"
						},
						{
							"internalType": "uint256",
							"name": "_breadth",
							"type": "uint256"
						},
						{
							"internalType": "uint256",
							"name": "_height",
							"type": "uint256"
						}
					],
					"name": "setDimmension",
					"outputs": [],
					"stateMutability": "nonpayable",
					"type": "function"
				}
			],
			"devdoc": {
				"kind": "dev",
				"methods": {},
				"version": 1
			},
			"evm": {
				"assembly": "    /* \"object.sol\":47:478  contract Book{... */\n  mstore(0x40, 0x80)\n    /* \"object.sol\":139:184  constructor(uint _a){... */\n  callvalue\n  dup1\n  iszero\n  tag_1\n  jumpi\n  0x00\n  dup1\n  revert\ntag_1:\n  pop\n  mload(0x40)\n  sub(codesize, bytecodeSize)\n  dup1\n  bytecodeSize\n  dup4\n  codecopy\n  dup2\n  dup2\n  add\n  0x40\n  mstore\n  dup2\n  add\n  swap1\n  tag_2\n  swap2\n  swap1\n  tag_3\n  jump\t// in\ntag_2:\n    /* \"object.sol\":174:176  _a */\n  dup1\n    /* \"object.sol\":170:171  a */\n  0x03\n    /* \"object.sol\":170:176  a = _a */\n  dup2\n  swap1\n  sstore\n  pop\n    /* \"object.sol\":139:184  constructor(uint _a){... */\n  pop\n    /* \"object.sol\":47:478  contract Book{... */\n  jump(tag_6)\n    /* \"#utility.yul\":88:205   */\ntag_8:\n    /* \"#utility.yul\":197:198   */\n  0x00\n    /* \"#utility.yul\":194:195   */\n  dup1\n    /* \"#utility.yul\":187:199   */\n  revert\n    /* \"#utility.yul\":334:411   */\ntag_10:\n    /* \"#utility.yul\":371:378   */\n  0x00\n    /* \"#utility.yul\":400:405   */\n  dup2\n    /* \"#utility.yul\":389:405   */\n  swap1\n  pop\n    /* \"#utility.yul\":334:411   */\n  swap2\n  swap1\n  pop\n  jump\t// out\n    /* \"#utility.yul\":417:539   */\ntag_11:\n    /* \"#utility.yul\":490:514   */\n  tag_19\n    /* \"#utility.yul\":508:513   */\n  dup2\n    /* \"#utility.yul\":490:514   */\n  tag_10\n  jump\t// in\ntag_19:\n    /* \"#utility.yul\":483:488   */\n  dup2\n    /* \"#utility.yul\":480:515   */\n  eq\n    /* \"#utility.yul\":470:533   */\n  tag_20\n  jumpi\n    /* \"#utility.yul\":529:530   */\n  0x00\n    /* \"#utility.yul\":526:527   */\n  dup1\n    /* \"#utility.yul\":519:531   */\n  revert\n    /* \"#utility.yul\":470:533   */\ntag_20:\n    /* \"#utility.yul\":417:539   */\n  pop\n  jump\t// out\n    /* \"#utility.yul\":545:688   */\ntag_12:\n    /* \"#utility.yul\":602:607   */\n  0x00\n    /* \"#utility.yul\":633:639   */\n  dup2\n    /* \"#utility.yul\":627:640   */\n  mload\n    /* \"#utility.yul\":618:640   */\n  swap1\n  pop\n    /* \"#utility.yul\":649:682   */\n  tag_22\n    /* \"#utility.yul\":676:681   */\n  dup2\n    /* \"#utility.yul\":649:682   */\n  tag_11\n  jump\t// in\ntag_22:\n    /* \"#utility.yul\":545:688   */\n  swap3\n  swap2\n  pop\n  pop\n  jump\t// out\n    /* \"#utility.yul\":694:1045   */\ntag_3:\n    /* \"#utility.yul\":764:770   */\n  0x00\n    /* \"#utility.yul\":813:815   */\n  0x20\n    /* \"#utility.yul\":801:810   */\n  dup3\n    /* \"#utility.yul\":792:799   */\n  dup5\n    /* \"#utility.yul\":788:811   */\n  sub\n    /* \"#utility.yul\":784:816   */\n  slt\n    /* \"#utility.yul\":781:900   */\n  iszero\n  tag_24\n  jumpi\n    /* \"#utility.yul\":819:898   */\n  tag_25\n  tag_8\n  jump\t// in\ntag_25:\n    /* \"#utility.yul\":781:900   */\ntag_24:\n    /* \"#utility.yul\":939:940   */\n  0x00\n    /* \"#utility.yul\":964:1028   */\n  tag_26\n    /* \"#utility.yul\":1020:1027   */\n  dup5\n    /* \"#utility.yul\":1011:1017   */\n  dup3\n    /* \"#utility.yul\":1000:1009   */\n  dup6\n    /* \"#utility.yul\":996:1018   */\n  add\n    /* \"#utility.yul\":964:1028   */\n  tag_12\n  jump\t// in\ntag_26:\n    /* \"#utility.yul\":954:1028   */\n  swap2\n  pop\n    /* \"#utility.yul\":910:1038   */\n  pop\n    /* \"#utility.yul\":694:1045   */\n  swap3\n  swap2\n  pop\n  pop\n  jump\t// out\n    /* \"object.sol\":47:478  contract Book{... */\ntag_6:\n  dataSize(sub_0)\n  dup1\n  dataOffset(sub_0)\n  0x00\n  codecopy\n  0x00\n  return\nstop\n\nsub_0: assembly {\n        /* \"object.sol\":47:478  contract Book{... */\n      mstore(0x40, 0x80)\n      callvalue\n      dup1\n      iszero\n      tag_1\n      jumpi\n      0x00\n      dup1\n      revert\n    tag_1:\n      pop\n      jumpi(tag_2, lt(calldatasize, 0x04))\n      shr(0xe0, calldataload(0x00))\n      dup1\n      0xe1f2d118\n      eq\n      tag_3\n      jumpi\n      dup1\n      0xf02782dc\n      eq\n      tag_4\n      jumpi\n    tag_2:\n      0x00\n      dup1\n      revert\n        /* \"object.sol\":192:355  function setDimmension(uint _length, uint _breadth, uint _height) public{... */\n    tag_3:\n      tag_5\n      0x04\n      dup1\n      calldatasize\n      sub\n      dup2\n      add\n      swap1\n      tag_6\n      swap2\n      swap1\n      tag_7\n      jump\t// in\n    tag_6:\n      tag_8\n      jump\t// in\n    tag_5:\n      stop\n        /* \"object.sol\":363:475  function getDimension() public view returns(uint, uint, uint){... */\n    tag_4:\n      tag_9\n      tag_10\n      jump\t// in\n    tag_9:\n      mload(0x40)\n      tag_11\n      swap4\n      swap3\n      swap2\n      swap1\n      tag_12\n      jump\t// in\n    tag_11:\n      mload(0x40)\n      dup1\n      swap2\n      sub\n      swap1\n      return\n        /* \"object.sol\":192:355  function setDimmension(uint _length, uint _breadth, uint _height) public{... */\n    tag_8:\n        /* \"object.sol\":284:291  _length */\n      dup3\n        /* \"object.sol\":275:281  length */\n      0x00\n        /* \"object.sol\":275:291  length = _length */\n      dup2\n      swap1\n      sstore\n      pop\n        /* \"object.sol\":312:320  _breadth */\n      dup2\n        /* \"object.sol\":302:309  breadth */\n      0x01\n        /* \"object.sol\":302:320  breadth = _breadth */\n      dup2\n      swap1\n      sstore\n      pop\n        /* \"object.sol\":340:347  _height */\n      dup1\n        /* \"object.sol\":331:337  height */\n      0x02\n        /* \"object.sol\":331:347  height = _height */\n      dup2\n      swap1\n      sstore\n      pop\n        /* \"object.sol\":192:355  function setDimmension(uint _length, uint _breadth, uint _height) public{... */\n      pop\n      pop\n      pop\n      jump\t// out\n        /* \"object.sol\":363:475  function getDimension() public view returns(uint, uint, uint){... */\n    tag_10:\n        /* \"object.sol\":407:411  uint */\n      0x00\n        /* \"object.sol\":413:417  uint */\n      dup1\n        /* \"object.sol\":419:423  uint */\n      0x00\n        /* \"object.sol\":443:449  length */\n      dup1\n      sload\n        /* \"object.sol\":451:458  breadth */\n      sload(0x01)\n        /* \"object.sol\":460:466  height */\n      sload(0x02)\n        /* \"object.sol\":435:467  return (length, breadth, height) */\n      swap3\n      pop\n      swap3\n      pop\n      swap3\n      pop\n        /* \"object.sol\":363:475  function getDimension() public view returns(uint, uint, uint){... */\n      swap1\n      swap2\n      swap3\n      jump\t// out\n        /* \"#utility.yul\":88:205   */\n    tag_16:\n        /* \"#utility.yul\":197:198   */\n      0x00\n        /* \"#utility.yul\":194:195   */\n      dup1\n        /* \"#utility.yul\":187:199   */\n      revert\n        /* \"#utility.yul\":334:411   */\n    tag_18:\n        /* \"#utility.yul\":371:378   */\n      0x00\n        /* \"#utility.yul\":400:405   */\n      dup2\n        /* \"#utility.yul\":389:405   */\n      swap1\n      pop\n        /* \"#utility.yul\":334:411   */\n      swap2\n      swap1\n      pop\n      jump\t// out\n        /* \"#utility.yul\":417:539   */\n    tag_19:\n        /* \"#utility.yul\":490:514   */\n      tag_28\n        /* \"#utility.yul\":508:513   */\n      dup2\n        /* \"#utility.yul\":490:514   */\n      tag_18\n      jump\t// in\n    tag_28:\n        /* \"#utility.yul\":483:488   */\n      dup2\n        /* \"#utility.yul\":480:515   */\n      eq\n        /* \"#utility.yul\":470:533   */\n      tag_29\n      jumpi\n        /* \"#utility.yul\":529:530   */\n      0x00\n        /* \"#utility.yul\":526:527   */\n      dup1\n        /* \"#utility.yul\":519:531   */\n      revert\n        /* \"#utility.yul\":470:533   */\n    tag_29:\n        /* \"#utility.yul\":417:539   */\n      pop\n      jump\t// out\n        /* \"#utility.yul\":545:684   */\n    tag_20:\n        /* \"#utility.yul\":591:596   */\n      0x00\n        /* \"#utility.yul\":629:635   */\n      dup2\n        /* \"#utility.yul\":616:636   */\n      calldataload\n        /* \"#utility.yul\":607:636   */\n      swap1\n      pop\n        /* \"#utility.yul\":645:678   */\n      tag_31\n        /* \"#utility.yul\":672:677   */\n      dup2\n        /* \"#utility.yul\":645:678   */\n      tag_19\n      jump\t// in\n    tag_31:\n        /* \"#utility.yul\":545:684   */\n      swap3\n      swap2\n      pop\n      pop\n      jump\t// out\n        /* \"#utility.yul\":690:1309   */\n    tag_7:\n        /* \"#utility.yul\":767:773   */\n      0x00\n        /* \"#utility.yul\":775:781   */\n      dup1\n        /* \"#utility.yul\":783:789   */\n      0x00\n        /* \"#utility.yul\":832:834   */\n      0x60\n        /* \"#utility.yul\":820:829   */\n      dup5\n        /* \"#utility.yul\":811:818   */\n      dup7\n        /* \"#utility.yul\":807:830   */\n      sub\n        /* \"#utility.yul\":803:835   */\n      slt\n        /* \"#utility.yul\":800:919   */\n      iszero\n      tag_33\n      jumpi\n        /* \"#utility.yul\":838:917   */\n      tag_34\n      tag_16\n      jump\t// in\n    tag_34:\n        /* \"#utility.yul\":800:919   */\n    tag_33:\n        /* \"#utility.yul\":958:959   */\n      0x00\n        /* \"#utility.yul\":983:1036   */\n      tag_35\n        /* \"#utility.yul\":1028:1035   */\n      dup7\n        /* \"#utility.yul\":1019:1025   */\n      dup3\n        /* \"#utility.yul\":1008:1017   */\n      dup8\n        /* \"#utility.yul\":1004:1026   */\n      add\n        /* \"#utility.yul\":983:1036   */\n      tag_20\n      jump\t// in\n    tag_35:\n        /* \"#utility.yul\":973:1036   */\n      swap4\n      pop\n        /* \"#utility.yul\":929:1046   */\n      pop\n        /* \"#utility.yul\":1085:1087   */\n      0x20\n        /* \"#utility.yul\":1111:1164   */\n      tag_36\n        /* \"#utility.yul\":1156:1163   */\n      dup7\n        /* \"#utility.yul\":1147:1153   */\n      dup3\n        /* \"#utility.yul\":1136:1145   */\n      dup8\n        /* \"#utility.yul\":1132:1154   */\n      add\n        /* \"#utility.yul\":1111:1164   */\n      tag_20\n      jump\t// in\n    tag_36:\n        /* \"#utility.yul\":1101:1164   */\n      swap3\n      pop\n        /* \"#utility.yul\":1056:1174   */\n      pop\n        /* \"#utility.yul\":1213:1215   */\n      0x40\n        /* \"#utility.yul\":1239:1292   */\n      tag_37\n        /* \"#utility.yul\":1284:1291   */\n      dup7\n        /* \"#utility.yul\":1275:1281   */\n      dup3\n        /* \"#utility.yul\":1264:1273   */\n      dup8\n        /* \"#utility.yul\":1260:1282   */\n      add\n        /* \"#utility.yul\":1239:1292   */\n      tag_20\n      jump\t// in\n    tag_37:\n        /* \"#utility.yul\":1229:1292   */\n      swap2\n      pop\n        /* \"#utility.yul\":1184:1302   */\n      pop\n        /* \"#utility.yul\":690:1309   */\n      swap3\n      pop\n      swap3\n      pop\n      swap3\n      jump\t// out\n        /* \"#utility.yul\":1315:1433   */\n    tag_21:\n        /* \"#utility.yul\":1402:1426   */\n      tag_39\n        /* \"#utility.yul\":1420:1425   */\n      dup2\n        /* \"#utility.yul\":1402:1426   */\n      tag_18\n      jump\t// in\n    tag_39:\n        /* \"#utility.yul\":1397:1400   */\n      dup3\n        /* \"#utility.yul\":1390:1427   */\n      mstore\n        /* \"#utility.yul\":1315:1433   */\n      pop\n      pop\n      jump\t// out\n        /* \"#utility.yul\":1439:1881   */\n    tag_12:\n        /* \"#utility.yul\":1588:1592   */\n      0x00\n        /* \"#utility.yul\":1626:1628   */\n      0x60\n        /* \"#utility.yul\":1615:1624   */\n      dup3\n        /* \"#utility.yul\":1611:1629   */\n      add\n        /* \"#utility.yul\":1603:1629   */\n      swap1\n      pop\n        /* \"#utility.yul\":1639:1710   */\n      tag_41\n        /* \"#utility.yul\":1707:1708   */\n      0x00\n        /* \"#utility.yul\":1696:1705   */\n      dup4\n        /* \"#utility.yul\":1692:1709   */\n      add\n        /* \"#utility.yul\":1683:1689   */\n      dup7\n        /* \"#utility.yul\":1639:1710   */\n      tag_21\n      jump\t// in\n    tag_41:\n        /* \"#utility.yul\":1720:1792   */\n      tag_42\n        /* \"#utility.yul\":1788:1790   */\n      0x20\n        /* \"#utility.yul\":1777:1786   */\n      dup4\n        /* \"#utility.yul\":1773:1791   */\n      add\n        /* \"#utility.yul\":1764:1770   */\n      dup6\n        /* \"#utility.yul\":1720:1792   */\n      tag_21\n      jump\t// in\n    tag_42:\n        /* \"#utility.yul\":1802:1874   */\n      tag_43\n        /* \"#utility.yul\":1870:1872   */\n      0x40\n        /* \"#utility.yul\":1859:1868   */\n      dup4\n        /* \"#utility.yul\":1855:1873   */\n      add\n        /* \"#utility.yul\":1846:1852   */\n      dup5\n        /* \"#utility.yul\":1802:1874   */\n      tag_21\n      jump\t// in\n    tag_43:\n        /* \"#utility.yul\":1439:1881   */\n      swap5\n      swap4\n      pop\n      pop\n      pop\n      pop\n      jump\t// out\n\n    auxdata: 0xa264697066735822122070991858e3ef65d143fc60f2473d21caa4c4268581127940fe4c97b4de9060ea64736f6c63430008110033\n}\n",
				"bytecode": {
					"linkReferences": {},
					"object": "608060405234801561001057600080fd5b506040516102693803806102698339818101604052810190610032919061007a565b80600381905550506100a7565b600080fd5b6000819050919050565b61005781610044565b811461006257600080fd5b50565b6000815190506100748161004e565b92915050565b6000602082840312156100905761008f61003f565b5b600061009e84828501610065565b91505092915050565b6101b3806100b66000396000f3fe608060405234801561001057600080fd5b50600436106100365760003560e01c8063e1f2d1181461003b578063f02782dc14610057575b600080fd5b610055600480360381019061005091906100e4565b610077565b005b61005f610091565b60405161006e93929190610146565b60405180910390f35b826000819055508160018190555080600281905550505050565b60008060008054600154600254925092509250909192565b600080fd5b6000819050919050565b6100c1816100ae565b81146100cc57600080fd5b50565b6000813590506100de816100b8565b92915050565b6000806000606084860312156100fd576100fc6100a9565b5b600061010b868287016100cf565b935050602061011c868287016100cf565b925050604061012d868287016100cf565b9150509250925092565b610140816100ae565b82525050565b600060608201905061015b6000830186610137565b6101686020830185610137565b6101756040830184610137565b94935050505056fea264697066735822122070991858e3ef65d143fc60f2473d21caa4c4268581127940fe4c97b4de9060ea64736f6c63430008110033",
					"opcodes": "PUSH1 0x80 PUSH1 0x40 MSTORE CALLVALUE DUP1 ISZERO PUSH2 0x10 JUMPI PUSH1 0x0 DUP1 REVERT JUMPDEST POP PUSH1 0x40 MLOAD PUSH2 0x269 CODESIZE SUB DUP1 PUSH2 0x269 DUP4 CODECOPY DUP2 DUP2 ADD PUSH1 0x40 MSTORE DUP2 ADD SWAP1 PUSH2 0x32 SWAP2 SWAP1 PUSH2 0x7A JUMP JUMPDEST DUP1 PUSH1 0x3 DUP2 SWAP1 SSTORE POP POP PUSH2 0xA7 JUMP JUMPDEST PUSH1 0x0 DUP1 REVERT JUMPDEST PUSH1 0x0 DUP2 SWAP1 POP SWAP2 SWAP1 POP JUMP JUMPDEST PUSH2 0x57 DUP2 PUSH2 0x44 JUMP JUMPDEST DUP2 EQ PUSH2 0x62 JUMPI PUSH1 0x0 DUP1 REVERT JUMPDEST POP JUMP JUMPDEST PUSH1 0x0 DUP2 MLOAD SWAP1 POP PUSH2 0x74 DUP2 PUSH2 0x4E JUMP JUMPDEST SWAP3 SWAP2 POP POP JUMP JUMPDEST PUSH1 0x0 PUSH1 0x20 DUP3 DUP5 SUB SLT ISZERO PUSH2 0x90 JUMPI PUSH2 0x8F PUSH2 0x3F JUMP JUMPDEST JUMPDEST PUSH1 0x0 PUSH2 0x9E DUP5 DUP3 DUP6 ADD PUSH2 0x65 JUMP JUMPDEST SWAP2 POP POP SWAP3 SWAP2 POP POP JUMP JUMPDEST PUSH2 0x1B3 DUP1 PUSH2 0xB6 PUSH1 0x0 CODECOPY PUSH1 0x0 RETURN INVALID PUSH1 0x80 PUSH1 0x40 MSTORE CALLVALUE DUP1 ISZERO PUSH2 0x10 JUMPI PUSH1 0x0 DUP1 REVERT JUMPDEST POP PUSH1 0x4 CALLDATASIZE LT PUSH2 0x36 JUMPI PUSH1 0x0 CALLDATALOAD PUSH1 0xE0 SHR DUP1 PUSH4 0xE1F2D118 EQ PUSH2 0x3B JUMPI DUP1 PUSH4 0xF02782DC EQ PUSH2 0x57 JUMPI JUMPDEST PUSH1 0x0 DUP1 REVERT JUMPDEST PUSH2 0x55 PUSH1 0x4 DUP1 CALLDATASIZE SUB DUP2 ADD SWAP1 PUSH2 0x50 SWAP2 SWAP1 PUSH2 0xE4 JUMP JUMPDEST PUSH2 0x77 JUMP JUMPDEST STOP JUMPDEST PUSH2 0x5F PUSH2 0x91 JUMP JUMPDEST PUSH1 0x40 MLOAD PUSH2 0x6E SWAP4 SWAP3 SWAP2 SWAP1 PUSH2 0x146 JUMP JUMPDEST PUSH1 0x40 MLOAD DUP1 SWAP2 SUB SWAP1 RETURN JUMPDEST DUP3 PUSH1 0x0 DUP2 SWAP1 SSTORE POP DUP2 PUSH1 0x1 DUP2 SWAP1 SSTORE POP DUP1 PUSH1 0x2 DUP2 SWAP1 SSTORE POP POP POP POP JUMP JUMPDEST PUSH1 0x0 DUP1 PUSH1 0x0 DUP1 SLOAD PUSH1 0x1 SLOAD PUSH1 0x2 SLOAD SWAP3 POP SWAP3 POP SWAP3 POP SWAP1 SWAP2 SWAP3 JUMP JUMPDEST PUSH1 0x0 DUP1 REVERT JUMPDEST PUSH1 0x0 DUP2 SWAP1 POP SWAP2 SWAP1 POP JUMP JUMPDEST PUSH2 0xC1 DUP2 PUSH2 0xAE JUMP JUMPDEST DUP2 EQ PUSH2 0xCC JUMPI PUSH1 0x0 DUP1 REVERT JUMPDEST POP JUMP JUMPDEST PUSH1 0x0 DUP2 CALLDATALOAD SWAP1 POP PUSH2 0xDE DUP2 PUSH2 0xB8 JUMP JUMPDEST SWAP3 SWAP2 POP POP JUMP JUMPDEST PUSH1 0x0 DUP1 PUSH1 0x0 PUSH1 0x60 DUP5 DUP7 SUB SLT ISZERO PUSH2 0xFD JUMPI PUSH2 0xFC PUSH2 0xA9 JUMP JUMPDEST JUMPDEST PUSH1 0x0 PUSH2 0x10B DUP7 DUP3 DUP8 ADD PUSH2 0xCF JUMP JUMPDEST SWAP4 POP POP PUSH1 0x20 PUSH2 0x11C DUP7 DUP3 DUP8 ADD PUSH2 0xCF JUMP JUMPDEST SWAP3 POP POP PUSH1 0x40 PUSH2 0x12D DUP7 DUP3 DUP8 ADD PUSH2 0xCF JUMP JUMPDEST SWAP2 POP POP SWAP3 POP SWAP3 POP SWAP3 JUMP JUMPDEST PUSH2 0x140 DUP2 PUSH2 0xAE JUMP JUMPDEST DUP3 MSTORE POP POP JUMP JUMPDEST PUSH1 0x0 PUSH1 0x60 DUP3 ADD SWAP1 POP PUSH2 0x15B PUSH1 0x0 DUP4 ADD DUP7 PUSH2 0x137 JUMP JUMPDEST PUSH2 0x168 PUSH1 0x20 DUP4 ADD DUP6 PUSH2 0x137 JUMP JUMPDEST PUSH2 0x175 PUSH1 0x40 DUP4 ADD DUP5 PUSH2 0x137 JUMP JUMPDEST SWAP5 SWAP4 POP POP POP POP JUMP INVALID LOG2 PUSH5 0x6970667358 0x22 SLT KECCAK256 PUSH17 0x991858E3EF65D143FC60F2473D21CAA4C4 0x26 DUP6 DUP2 SLT PUSH26 0x40FE4C97B4DE9060EA64736F6C63430008110033000000000000 "
				},
				"gasEstimates": {
					"creation": {
						"codeDepositCost": "87000",
						"executionCost": "infinite",
						"totalCost": "infinite"
					},
					"external": {
						"getDimension()": "infinite",
						"setDimmension(uint256,uint256,uint256)": "infinite"
					}
				},
				"methodIdentifiers": {
					"getDimension()": "f02782dc",
					"setDimmension(uint256,uint256,uint256)": "e1f2d118"
				}
			},
			"storageLayout": {
				"storage": [
					{
						"astId": 3,
						"contract": "object.sol:Book",
						"label": "length",
						"offset": 0,
						"slot": "0",
						"type": "t_uint256"
					},
					{
						"astId": 5,
						"contract": "object.sol:Book",
						"label": "breadth",
						"offset": 0,
						"slot": "1",
						"type": "t_uint256"
					},
					{
						"astId": 7,
						"contract": "object.sol:Book",
						"label": "height",
						"offset": 0,
						"slot": "2",
						"type": "t_uint256"
					},
					{
						"astId": 9,
						"contract": "object.sol:Book",
						"label": "a",
						"offset": 0,
						"slot": "3",
						"type": "t_uint256"
					}
				],
				"types": {
					"t_uint256": {
						"encoding": "inplace",
						"label": "uint256",
						"numberOfBytes": "32"
					}
				}
			},
			"userdoc": {
				"kind": "user",
				"methods": {},
				"version": 1
			}
		}
	}
}