{
	"abstract.sol": {
		"Book2": {
			"abi": [
				{
					"inputs": [
						{
							"internalType": "uint256",
							"name": "a",
							"type": "uint256"
						},
						{
							"internalType": "uint256",
							"name": "b",
							"type": "uint256"
						}
					],
					"name": "add",
					"outputs": [
						{
							"internalType": "uint256",
							"name": "",
							"type": "uint256"
						}
					],
					"stateMutability": "pure",
					"type": "function"
				},
				{
					"inputs": [],
					"name": "getDimenions",
					"outputs": [
						{
							"internalType": "uint256",
							"name": "",
							"type": "uint256"
						},
						{
							"internalType": "uint256",
							"name": "",
							"type": "uint256"
						},
						{
							"internalType": "uint256",
							"name": "",
							"type": "uint256"
						}
					],
					"stateMutability": "view",
					"type": "function"
				},
				{
					"inputs": [
						{
							"internalType": "uint256",
							"name": "_length",
							"type": "uint256"
						},
						{
							"internalType": "uint256",
							"name": "_breadth",
							"type": "uint256"
						},
						{
							"internalType": "uint256",
							"name": "_height",
							"type": "uint256"
						}
					],
					"name": "setDimensions",
					"outputs": [],
					"stateMutability": "nonpayable",
					"type": "function"
				}
			],
			"devdoc": {
				"kind": "dev",
				"methods": {},
				"version": 1
			},
			"evm": {
				"assembly": "    /* \"abstract.sol\":481:629  contract Book2 is Book{... */\n  mstore(0x40, 0x80)\n  callvalue\n  dup1\n  iszero\n  tag_1\n  jumpi\n  0x00\n  dup1\n  revert\ntag_1:\n  pop\n  dataSize(sub_0)\n  dup1\n  dataOffset(sub_0)\n  0x00\n  codecopy\n  0x00\n  return\nstop\n\nsub_0: assembly {\n        /* \"abstract.sol\":481:629  contract Book2 is Book{... */\n      mstore(0x40, 0x80)\n      callvalue\n      dup1\n      iszero\n      tag_1\n      jumpi\n      0x00\n      dup1\n      revert\n    tag_1:\n      pop\n      jumpi(tag_2, lt(calldatasize, 0x04))\n      shr(0xe0, calldataload(0x00))\n      dup1\n      0x17eb564f\n      eq\n      tag_3\n      jumpi\n      dup1\n      0x771602f7\n      eq\n      tag_4\n      jumpi\n      dup1\n      0xabcae2ca\n      eq\n      tag_5\n      jumpi\n    tag_2:\n      0x00\n      dup1\n      revert\n        /* \"abstract.sol\":288:399  function getDimenions() view public returns(uint, uint, uint){... */\n    tag_3:\n      tag_6\n      tag_7\n      jump\t// in\n    tag_6:\n      mload(0x40)\n      tag_8\n      swap4\n      swap3\n      swap2\n      swap1\n      tag_9\n      jump\t// in\n    tag_8:\n      mload(0x40)\n      dup1\n      swap2\n      sub\n      swap1\n      return\n        /* \"abstract.sol\":512:626  function add(uint a, uint b) public pure override returns(uint){... */\n    tag_4:\n      tag_10\n      0x04\n      dup1\n      calldatasize\n      sub\n      dup2\n      add\n      swap1\n      tag_11\n      swap2\n      swap1\n      tag_12\n      jump\t// in\n    tag_11:\n      tag_13\n      jump\t// in\n    tag_10:\n      mload(0x40)\n      tag_14\n      swap2\n      swap1\n      tag_15\n      jump\t// in\n    tag_14:\n      mload(0x40)\n      dup1\n      swap2\n      sub\n      swap1\n      return\n        /* \"abstract.sol\":115:280  function setDimensions(uint _length, uint _breadth, uint _height) public{... */\n    tag_5:\n      tag_16\n      0x04\n      dup1\n      calldatasize\n      sub\n      dup2\n      add\n      swap1\n      tag_17\n      swap2\n      swap1\n      tag_18\n      jump\t// in\n    tag_17:\n      tag_19\n      jump\t// in\n    tag_16:\n      stop\n        /* \"abstract.sol\":288:399  function getDimenions() view public returns(uint, uint, uint){... */\n    tag_7:\n        /* \"abstract.sol\":332:336  uint */\n      0x00\n        /* \"abstract.sol\":338:342  uint */\n      dup1\n        /* \"abstract.sol\":344:348  uint */\n      0x00\n        /* \"abstract.sol\":367:373  length */\n      dup1\n      sload\n        /* \"abstract.sol\":375:382  breadth */\n      sload(0x01)\n        /* \"abstract.sol\":384:390  height */\n      sload(0x02)\n        /* \"abstract.sol\":360:391  return(length, breadth, height) */\n      swap3\n      pop\n      swap3\n      pop\n      swap3\n      pop\n        /* \"abstract.sol\":288:399  function getDimenions() view public returns(uint, uint, uint){... */\n      swap1\n      swap2\n      swap3\n      jump\t// out\n        /* \"abstract.sol\":512:626  function add(uint a, uint b) public pure override returns(uint){... */\n    tag_13:\n        /* \"abstract.sol\":570:574  uint */\n      0x00\n        /* \"abstract.sol\":586:592  uint c */\n      dup1\n        /* \"abstract.sol\":598:599  b */\n      dup3\n        /* \"abstract.sol\":595:596  a */\n      dup5\n        /* \"abstract.sol\":595:599  a +b */\n      tag_22\n      swap2\n      swap1\n      tag_23\n      jump\t// in\n    tag_22:\n        /* \"abstract.sol\":586:599  uint c = a +b */\n      swap1\n      pop\n        /* \"abstract.sol\":617:618  c */\n      dup1\n        /* \"abstract.sol\":610:618  return c */\n      swap2\n      pop\n      pop\n        /* \"abstract.sol\":512:626  function add(uint a, uint b) public pure override returns(uint){... */\n      swap3\n      swap2\n      pop\n      pop\n      jump\t// out\n        /* \"abstract.sol\":115:280  function setDimensions(uint _length, uint _breadth, uint _height) public{... */\n    tag_19:\n        /* \"abstract.sol\":209:216  _length */\n      dup3\n        /* \"abstract.sol\":200:206  length */\n      0x00\n        /* \"abstract.sol\":200:216  length = _length */\n      dup2\n      swap1\n      sstore\n      pop\n        /* \"abstract.sol\":237:245  _breadth */\n      dup2\n        /* \"abstract.sol\":227:234  breadth */\n      0x01\n        /* \"abstract.sol\":227:245  breadth = _breadth */\n      dup2\n      swap1\n      sstore\n      pop\n        /* \"abstract.sol\":265:272  _height */\n      dup1\n        /* \"abstract.sol\":256:262  height */\n      0x02\n        /* \"abstract.sol\":256:272  height = _height */\n      dup2\n      swap1\n      sstore\n      pop\n        /* \"abstract.sol\":115:280  function setDimensions(uint _length, uint _breadth, uint _height) public{... */\n      pop\n      pop\n      pop\n      jump\t// out\n        /* \"#utility.yul\":7:84   */\n    tag_25:\n        /* \"#utility.yul\":44:51   */\n      0x00\n        /* \"#utility.yul\":73:78   */\n      dup2\n        /* \"#utility.yul\":62:78   */\n      swap1\n      pop\n        /* \"#utility.yul\":7:84   */\n      swap2\n      swap1\n      pop\n      jump\t// out\n        /* \"#utility.yul\":90:208   */\n    tag_26:\n        /* \"#utility.yul\":177:201   */\n      tag_36\n        /* \"#utility.yul\":195:200   */\n      dup2\n        /* \"#utility.yul\":177:201   */\n      tag_25\n      jump\t// in\n    tag_36:\n        /* \"#utility.yul\":172:175   */\n      dup3\n        /* \"#utility.yul\":165:202   */\n      mstore\n        /* \"#utility.yul\":90:208   */\n      pop\n      pop\n      jump\t// out\n        /* \"#utility.yul\":214:656   */\n    tag_9:\n        /* \"#utility.yul\":363:367   */\n      0x00\n        /* \"#utility.yul\":401:403   */\n      0x60\n        /* \"#utility.yul\":390:399   */\n      dup3\n        /* \"#utility.yul\":386:404   */\n      add\n        /* \"#utility.yul\":378:404   */\n      swap1\n      pop\n        /* \"#utility.yul\":414:485   */\n      tag_38\n        /* \"#utility.yul\":482:483   */\n      0x00\n        /* \"#utility.yul\":471:480   */\n      dup4\n        /* \"#utility.yul\":467:484   */\n      add\n        /* \"#utility.yul\":458:464   */\n      dup7\n        /* \"#utility.yul\":414:485   */\n      tag_26\n      jump\t// in\n    tag_38:\n        /* \"#utility.yul\":495:567   */\n      tag_39\n        /* \"#utility.yul\":563:565   */\n      0x20\n        /* \"#utility.yul\":552:561   */\n      dup4\n        /* \"#utility.yul\":548:566   */\n      add\n        /* \"#utility.yul\":539:545   */\n      dup6\n        /* \"#utility.yul\":495:567   */\n      tag_26\n      jump\t// in\n    tag_39:\n        /* \"#utility.yul\":577:649   */\n      tag_40\n        /* \"#utility.yul\":645:647   */\n      0x40\n        /* \"#utility.yul\":634:643   */\n      dup4\n        /* \"#utility.yul\":630:648   */\n      add\n        /* \"#utility.yul\":621:627   */\n      dup5\n        /* \"#utility.yul\":577:649   */\n      tag_26\n      jump\t// in\n    tag_40:\n        /* \"#utility.yul\":214:656   */\n      swap5\n      swap4\n      pop\n      pop\n      pop\n      pop\n      jump\t// out\n        /* \"#utility.yul\":743:860   */\n    tag_28:\n        /* \"#utility.yul\":852:853   */\n      0x00\n        /* \"#utility.yul\":849:850   */\n      dup1\n        /* \"#utility.yul\":842:854   */\n      revert\n        /* \"#utility.yul\":989:1111   */\n    tag_30:\n        /* \"#utility.yul\":1062:1086   */\n      tag_45\n        /* \"#utility.yul\":1080:1085   */\n      dup2\n        /* \"#utility.yul\":1062:1086   */\n      tag_25\n      jump\t// in\n    tag_45:\n        /* \"#utility.yul\":1055:1060   */\n      dup2\n        /* \"#utility.yul\":1052:1087   */\n      eq\n        /* \"#utility.yul\":1042:1105   */\n      tag_46\n      jumpi\n        /* \"#utility.yul\":1101:1102   */\n      0x00\n        /* \"#utility.yul\":1098:1099   */\n      dup1\n        /* \"#utility.yul\":1091:1103   */\n      revert\n        /* \"#utility.yul\":1042:1105   */\n    tag_46:\n        /* \"#utility.yul\":989:1111   */\n      pop\n      jump\t// out\n        /* \"#utility.yul\":1117:1256   */\n    tag_31:\n        /* \"#utility.yul\":1163:1168   */\n      0x00\n        /* \"#utility.yul\":1201:1207   */\n      dup2\n        /* \"#utility.yul\":1188:1208   */\n      calldataload\n        /* \"#utility.yul\":1179:1208   */\n      swap1\n      pop\n        /* \"#utility.yul\":1217:1250   */\n      tag_48\n        /* \"#utility.yul\":1244:1249   */\n      dup2\n        /* \"#utility.yul\":1217:1250   */\n      tag_30\n      jump\t// in\n    tag_48:\n        /* \"#utility.yul\":1117:1256   */\n      swap3\n      swap2\n      pop\n      pop\n      jump\t// out\n        /* \"#utility.yul\":1262:1736   */\n    tag_12:\n        /* \"#utility.yul\":1330:1336   */\n      0x00\n        /* \"#utility.yul\":1338:1344   */\n      dup1\n        /* \"#utility.yul\":1387:1389   */\n      0x40\n        /* \"#utility.yul\":1375:1384   */\n      dup4\n        /* \"#utility.yul\":1366:1373   */\n      dup6\n        /* \"#utility.yul\":1362:1385   */\n      sub\n        /* \"#utility.yul\":1358:1390   */\n      slt\n        /* \"#utility.yul\":1355:1474   */\n      iszero\n      tag_50\n      jumpi\n        /* \"#utility.yul\":1393:1472   */\n      tag_51\n      tag_28\n      jump\t// in\n    tag_51:\n        /* \"#utility.yul\":1355:1474   */\n    tag_50:\n        /* \"#utility.yul\":1513:1514   */\n      0x00\n        /* \"#utility.yul\":1538:1591   */\n      tag_52\n        /* \"#utility.yul\":1583:1590   */\n      dup6\n        /* \"#utility.yul\":1574:1580   */\n      dup3\n        /* \"#utility.yul\":1563:1572   */\n      dup7\n        /* \"#utility.yul\":1559:1581   */\n      add\n        /* \"#utility.yul\":1538:1591   */\n      tag_31\n      jump\t// in\n    tag_52:\n        /* \"#utility.yul\":1528:1591   */\n      swap3\n      pop\n        /* \"#utility.yul\":1484:1601   */\n      pop\n        /* \"#utility.yul\":1640:1642   */\n      0x20\n        /* \"#utility.yul\":1666:1719   */\n      tag_53\n        /* \"#utility.yul\":1711:1718   */\n      dup6\n        /* \"#utility.yul\":1702:1708   */\n      dup3\n        /* \"#utility.yul\":1691:1700   */\n      dup7\n        /* \"#utility.yul\":1687:1709   */\n      add\n        /* \"#utility.yul\":1666:1719   */\n      tag_31\n      jump\t// in\n    tag_53:\n        /* \"#utility.yul\":1656:1719   */\n      swap2\n      pop\n        /* \"#utility.yul\":1611:1729   */\n      pop\n        /* \"#utility.yul\":1262:1736   */\n      swap3\n      pop\n      swap3\n      swap1\n      pop\n      jump\t// out\n        /* \"#utility.yul\":1742:1964   */\n    tag_15:\n        /* \"#utility.yul\":1835:1839   */\n      0x00\n        /* \"#utility.yul\":1873:1875   */\n      0x20\n        /* \"#utility.yul\":1862:1871   */\n      dup3\n        /* \"#utility.yul\":1858:1876   */\n      add\n        /* \"#utility.yul\":1850:1876   */\n      swap1\n      pop\n        /* \"#utility.yul\":1886:1957   */\n      tag_55\n        /* \"#utility.yul\":1954:1955   */\n      0x00\n        /* \"#utility.yul\":1943:1952   */\n      dup4\n        /* \"#utility.yul\":1939:1956   */\n      add\n        /* \"#utility.yul\":1930:1936   */\n      dup5\n        /* \"#utility.yul\":1886:1957   */\n      tag_26\n      jump\t// in\n    tag_55:\n        /* \"#utility.yul\":1742:1964   */\n      swap3\n      swap2\n      pop\n      pop\n      jump\t// out\n        /* \"#utility.yul\":1970:2589   */\n    tag_18:\n        /* \"#utility.yul\":2047:2053   */\n      0x00\n        /* \"#utility.yul\":2055:2061   */\n      dup1\n        /* \"#utility.yul\":2063:2069   */\n      0x00\n        /* \"#utility.yul\":2112:2114   */\n      0x60\n        /* \"#utility.yul\":2100:2109   */\n      dup5\n        /* \"#utility.yul\":2091:2098   */\n      dup7\n        /* \"#utility.yul\":2087:2110   */\n      sub\n        /* \"#utility.yul\":2083:2115   */\n      slt\n        /* \"#utility.yul\":2080:2199   */\n      iszero\n      tag_57\n      jumpi\n        /* \"#utility.yul\":2118:2197   */\n      tag_58\n      tag_28\n      jump\t// in\n    tag_58:\n        /* \"#utility.yul\":2080:2199   */\n    tag_57:\n        /* \"#utility.yul\":2238:2239   */\n      0x00\n        /* \"#utility.yul\":2263:2316   */\n      tag_59\n        /* \"#utility.yul\":2308:2315   */\n      dup7\n        /* \"#utility.yul\":2299:2305   */\n      dup3\n        /* \"#utility.yul\":2288:2297   */\n      dup8\n        /* \"#utility.yul\":2284:2306   */\n      add\n        /* \"#utility.yul\":2263:2316   */\n      tag_31\n      jump\t// in\n    tag_59:\n        /* \"#utility.yul\":2253:2316   */\n      swap4\n      pop\n        /* \"#utility.yul\":2209:2326   */\n      pop\n        /* \"#utility.yul\":2365:2367   */\n      0x20\n        /* \"#utility.yul\":2391:2444   */\n      tag_60\n        /* \"#utility.yul\":2436:2443   */\n      dup7\n        /* \"#utility.yul\":2427:2433   */\n      dup3\n        /* \"#utility.yul\":2416:2425   */\n      dup8\n        /* \"#utility.yul\":2412:2434   */\n      add\n        /* \"#utility.yul\":2391:2444   */\n      tag_31\n      jump\t// in\n    tag_60:\n        /* \"#utility.yul\":2381:2444   */\n      swap3\n      pop\n        /* \"#utility.yul\":2336:2454   */\n      pop\n        /* \"#utility.yul\":2493:2495   */\n      0x40\n        /* \"#utility.yul\":2519:2572   */\n      tag_61\n        /* \"#utility.yul\":2564:2571   */\n      dup7\n        /* \"#utility.yul\":2555:2561   */\n      dup3\n        /* \"#utility.yul\":2544:2553   */\n      dup8\n        /* \"#utility.yul\":2540:2562   */\n      add\n        /* \"#utility.yul\":2519:2572   */\n      tag_31\n      jump\t// in\n    tag_61:\n        /* \"#utility.yul\":2509:2572   */\n      swap2\n      pop\n        /* \"#utility.yul\":2464:2582   */\n      pop\n        /* \"#utility.yul\":1970:2589   */\n      swap3\n      pop\n      swap3\n      pop\n      swap3\n      jump\t// out\n        /* \"#utility.yul\":2595:2775   */\n    tag_32:\n        /* \"#utility.yul\":2643:2720   */\n      0x4e487b7100000000000000000000000000000000000000000000000000000000\n        /* \"#utility.yul\":2640:2641   */\n      0x00\n        /* \"#utility.yul\":2633:2721   */\n      mstore\n        /* \"#utility.yul\":2740:2744   */\n      0x11\n        /* \"#utility.yul\":2737:2738   */\n      0x04\n        /* \"#utility.yul\":2730:2745   */\n      mstore\n        /* \"#utility.yul\":2764:2768   */\n      0x24\n        /* \"#utility.yul\":2761:2762   */\n      0x00\n        /* \"#utility.yul\":2754:2769   */\n      revert\n        /* \"#utility.yul\":2781:2972   */\n    tag_23:\n        /* \"#utility.yul\":2821:2824   */\n      0x00\n        /* \"#utility.yul\":2840:2860   */\n      tag_64\n        /* \"#utility.yul\":2858:2859   */\n      dup3\n        /* \"#utility.yul\":2840:2860   */\n      tag_25\n      jump\t// in\n    tag_64:\n        /* \"#utility.yul\":2835:2860   */\n      swap2\n      pop\n        /* \"#utility.yul\":2874:2894   */\n      tag_65\n        /* \"#utility.yul\":2892:2893   */\n      dup4\n        /* \"#utility.yul\":2874:2894   */\n      tag_25\n      jump\t// in\n    tag_65:\n        /* \"#utility.yul\":2869:2894   */\n      swap3\n      pop\n        /* \"#utility.yul\":2917:2918   */\n      dup3\n        /* \"#utility.yul\":2914:2915   */\n      dup3\n        /* \"#utility.yul\":2910:2919   */\n      add\n        /* \"#utility.yul\":2903:2919   */\n      swap1\n      pop\n        /* \"#utility.yul\":2938:2941   */\n      dup1\n        /* \"#utility.yul\":2935:2936   */\n      dup3\n        /* \"#utility.yul\":2932:2942   */\n      gt\n        /* \"#utility.yul\":2929:2965   */\n      iszero\n      tag_66\n      jumpi\n        /* \"#utility.yul\":2945:2963   */\n      tag_67\n      tag_32\n      jump\t// in\n    tag_67:\n        /* \"#utility.yul\":2929:2965   */\n    tag_66:\n        /* \"#utility.yul\":2781:2972   */\n      swap3\n      swap2\n      pop\n      pop\n      jump\t// out\n\n    auxdata: 0xa2646970667358221220667c14d1729c9edbeff2298a981d7ad4bb8c4d806a6d9e88934e3d70ea2f5ddd64736f6c63430008110033\n}\n",
				"bytecode": {
					"linkReferences": {},
					"object": "608060405234801561001057600080fd5b506102c7806100206000396000f3fe608060405234801561001057600080fd5b50600436106100415760003560e01c806317eb564f14610046578063771602f714610066578063abcae2ca14610096575b600080fd5b61004e6100b2565b60405161005d93929190610118565b60405180910390f35b610080600480360381019061007b9190610180565b6100ca565b60405161008d91906101c0565b60405180910390f35b6100b060048036038101906100ab91906101db565b6100e5565b005b60008060008054600154600254925092509250909192565b60008082846100d9919061025d565b90508091505092915050565b826000819055508160018190555080600281905550505050565b6000819050919050565b610112816100ff565b82525050565b600060608201905061012d6000830186610109565b61013a6020830185610109565b6101476040830184610109565b949350505050565b600080fd5b61015d816100ff565b811461016857600080fd5b50565b60008135905061017a81610154565b92915050565b600080604083850312156101975761019661014f565b5b60006101a58582860161016b565b92505060206101b68582860161016b565b9150509250929050565b60006020820190506101d56000830184610109565b92915050565b6000806000606084860312156101f4576101f361014f565b5b60006102028682870161016b565b93505060206102138682870161016b565b92505060406102248682870161016b565b9150509250925092565b7f4e487b7100000000000000000000000000000000000000000000000000000000600052601160045260246000fd5b6000610268826100ff565b9150610273836100ff565b925082820190508082111561028b5761028a61022e565b5b9291505056fea2646970667358221220667c14d1729c9edbeff2298a981d7ad4bb8c4d806a6d9e88934e3d70ea2f5ddd64736f6c63430008110033",
					"opcodes": "PUSH1 0x80 PUSH1 0x40 MSTORE CALLVALUE DUP1 ISZERO PUSH2 0x10 JUMPI PUSH1 0x0 DUP1 REVERT JUMPDEST POP PUSH2 0x2C7 DUP1 PUSH2 0x20 PUSH1 0x0 CODECOPY PUSH1 0x0 RETURN INVALID PUSH1 0x80 PUSH1 0x40 MSTORE CALLVALUE DUP1 ISZERO PUSH2 0x10 JUMPI PUSH1 0x0 DUP1 REVERT JUMPDEST POP PUSH1 0x4 CALLDATASIZE LT PUSH2 0x41 JUMPI PUSH1 0x0 CALLDATALOAD PUSH1 0xE0 SHR DUP1 PUSH4 0x17EB564F EQ PUSH2 0x46 JUMPI DUP1 PUSH4 0x771602F7 EQ PUSH2 0x66 JUMPI DUP1 PUSH4 0xABCAE2CA EQ PUSH2 0x96 JUMPI JUMPDEST PUSH1 0x0 DUP1 REVERT JUMPDEST PUSH2 0x4E PUSH2 0xB2 JUMP JUMPDEST PUSH1 0x40 MLOAD PUSH2 0x5D SWAP4 SWAP3 SWAP2 SWAP1 PUSH2 0x118 JUMP JUMPDEST PUSH1 0x40 MLOAD DUP1 SWAP2 SUB SWAP1 RETURN JUMPDEST PUSH2 0x80 PUSH1 0x4 DUP1 CALLDATASIZE SUB DUP2 ADD SWAP1 PUSH2 0x7B SWAP2 SWAP1 PUSH2 0x180 JUMP JUMPDEST PUSH2 0xCA JUMP JUMPDEST PUSH1 0x40 MLOAD PUSH2 0x8D SWAP2 SWAP1 PUSH2 0x1C0 JUMP JUMPDEST PUSH1 0x40 MLOAD DUP1 SWAP2 SUB SWAP1 RETURN JUMPDEST PUSH2 0xB0 PUSH1 0x4 DUP1 CALLDATASIZE SUB DUP2 ADD SWAP1 PUSH2 0xAB SWAP2 SWAP1 PUSH2 0x1DB JUMP JUMPDEST PUSH2 0xE5 JUMP JUMPDEST STOP JUMPDEST PUSH1 0x0 DUP1 PUSH1 0x0 DUP1 SLOAD PUSH1 0x1 SLOAD PUSH1 0x2 SLOAD SWAP3 POP SWAP3 POP SWAP3 POP SWAP1 SWAP2 SWAP3 JUMP JUMPDEST PUSH1 0x0 DUP1 DUP3 DUP5 PUSH2 0xD9 SWAP2 SWAP1 PUSH2 0x25D JUMP JUMPDEST SWAP1 POP DUP1 SWAP2 POP POP SWAP3 SWAP2 POP POP JUMP JUMPDEST DUP3 PUSH1 0x0 DUP2 SWAP1 SSTORE POP DUP2 PUSH1 0x1 DUP2 SWAP1 SSTORE POP DUP1 PUSH1 0x2 DUP2 SWAP1 SSTORE POP POP POP POP JUMP JUMPDEST PUSH1 0x0 DUP2 SWAP1 POP SWAP2 SWAP1 POP JUMP JUMPDEST PUSH2 0x112 DUP2 PUSH2 0xFF JUMP JUMPDEST DUP3 MSTORE POP POP JUMP JUMPDEST PUSH1 0x0 PUSH1 0x60 DUP3 ADD SWAP1 POP PUSH2 0x12D PUSH1 0x0 DUP4 ADD DUP7 PUSH2 0x109 JUMP JUMPDEST PUSH2 0x13A PUSH1 0x20 DUP4 ADD DUP6 PUSH2 0x109 JUMP JUMPDEST PUSH2 0x147 PUSH1 0x40 DUP4 ADD DUP5 PUSH2 0x109 JUMP JUMPDEST SWAP5 SWAP4 POP POP POP POP JUMP JUMPDEST PUSH1 0x0 DUP1 REVERT JUMPDEST PUSH2 0x15D DUP2 PUSH2 0xFF JUMP JUMPDEST DUP2 EQ PUSH2 0x168 JUMPI PUSH1 0x0 DUP1 REVERT JUMPDEST POP JUMP JUMPDEST PUSH1 0x0 DUP2 CALLDATALOAD SWAP1 POP PUSH2 0x17A DUP2 PUSH2 0x154 JUMP JUMPDEST SWAP3 SWAP2 POP POP JUMP JUMPDEST PUSH1 0x0 DUP1 PUSH1 0x40 DUP4 DUP6 SUB SLT ISZERO PUSH2 0x197 JUMPI PUSH2 0x196 PUSH2 0x14F JUMP JUMPDEST JUMPDEST PUSH1 0x0 PUSH2 0x1A5 DUP6 DUP3 DUP7 ADD PUSH2 0x16B JUMP JUMPDEST SWAP3 POP POP PUSH1 0x20 PUSH2 0x1B6 DUP6 DUP3 DUP7 ADD PUSH2 0x16B JUMP JUMPDEST SWAP2 POP POP SWAP3 POP SWAP3 SWAP1 POP JUMP JUMPDEST PUSH1 0x0 PUSH1 0x20 DUP3 ADD SWAP1 POP PUSH2 0x1D5 PUSH1 0x0 DUP4 ADD DUP5 PUSH2 0x109 JUMP JUMPDEST SWAP3 SWAP2 POP POP JUMP JUMPDEST PUSH1 0x0 DUP1 PUSH1 0x0 PUSH1 0x60 DUP5 DUP7 SUB SLT ISZERO PUSH2 0x1F4 JUMPI PUSH2 0x1F3 PUSH2 0x14F JUMP JUMPDEST JUMPDEST PUSH1 0x0 PUSH2 0x202 DUP7 DUP3 DUP8 ADD PUSH2 0x16B JUMP JUMPDEST SWAP4 POP POP PUSH1 0x20 PUSH2 0x213 DUP7 DUP3 DUP8 ADD PUSH2 0x16B JUMP JUMPDEST SWAP3 POP POP PUSH1 0x40 PUSH2 0x224 DUP7 DUP3 DUP8 ADD PUSH2 0x16B JUMP JUMPDEST SWAP2 POP POP SWAP3 POP SWAP3 POP SWAP3 JUMP JUMPDEST PUSH32 0x4E487B7100000000000000000000000000000000000000000000000000000000 PUSH1 0x0 MSTORE PUSH1 0x11 PUSH1 0x4 MSTORE PUSH1 0x24 PUSH1 0x0 REVERT JUMPDEST PUSH1 0x0 PUSH2 0x268 DUP3 PUSH2 0xFF JUMP JUMPDEST SWAP2 POP PUSH2 0x273 DUP4 PUSH2 0xFF JUMP JUMPDEST SWAP3 POP DUP3 DUP3 ADD SWAP1 POP DUP1 DUP3 GT ISZERO PUSH2 0x28B JUMPI PUSH2 0x28A PUSH2 0x22E JUMP JUMPDEST JUMPDEST SWAP3 SWAP2 POP POP JUMP INVALID LOG2 PUSH5 0x6970667358 0x22 SLT KECCAK256 PUSH7 0x7C14D1729C9EDB 0xEF CALLCODE 0x29 DUP11 SWAP9 SAR PUSH27 0xD4BB8C4D806A6D9E88934E3D70EA2F5DDD64736F6C634300081100 CALLER "
				},
				"gasEstimates": {
					"creation": {
						"codeDepositCost": "142200",
						"executionCost": "190",
						"totalCost": "142390"
					},
					"external": {
						"add(uint256,uint256)": "infinite",
						"getDimenions()": "infinite",
						"setDimensions(uint256,uint256,uint256)": "infinite"
					}
				},
				"methodIdentifiers": {
					"add(uint256,uint256)": "771602f7",
					"getDimenions()": "17eb564f",
					"setDimensions(uint256,uint256,uint256)": "abcae2ca"
				}
			},
			"storageLayout": {
				"storage": [
					{
						"astId": 3,
						"contract": "abstract.sol:Book2",
						"label": "length",
						"offset": 0,
						"slot": "0",
						"type": "t_uint256"
					},
					{
						"astId": 5,
						"contract": "abstract.sol:Book2",
						"label": "breadth",
						"offset": 0,
						"slot": "1",
						"type": "t_uint256"
					},
					{
						"astId": 7,
						"contract": "abstract.sol:Book2",
						"label": "height",
						"offset": 0,
						"slot": "2",
						"type": "t_uint256"
					}
				],
				"types": {
					"t_uint256": {
						"encoding": "inplace",
						"label": "uint256",
						"numberOfBytes": "32"
					}
				}
			},
			"userdoc": {
				"kind": "user",
				"methods": {},
				"version": 1
			}
		}
	}
}