{
	"data": {
		"bytecode": {
			"linkReferences": {},
			"object": "608060405234801561001057600080fd5b506101d1806100206000396000f3fe608060405234801561001057600080fd5b506004361061002b5760003560e01c806394813dd114610030575b600080fd5b61004a600480360381019061004591906100d4565b61004c565b005b80821015610095578181336040517f281a4b7500000000000000000000000000000000000000000000000000000000815260040161008c93929190610164565b60405180910390fd5b5050565b600080fd5b6000819050919050565b6100b18161009e565b81146100bc57600080fd5b50565b6000813590506100ce816100a8565b92915050565b600080604083850312156100eb576100ea610099565b5b60006100f9858286016100bf565b925050602061010a858286016100bf565b9150509250929050565b61011d8161009e565b82525050565b600073ffffffffffffffffffffffffffffffffffffffff82169050919050565b600061014e82610123565b9050919050565b61015e81610143565b82525050565b60006060820190506101796000830186610114565b6101866020830185610114565b6101936040830184610155565b94935050505056fea2646970667358221220871533deed5cd62f55d5a32142376b60815dfc3b4b04ae4c26342b7f82fe3e1864736f6c63430008110033",
			"opcodes": "PUSH1 0x80 PUSH1 0x40 MSTORE CALLVALUE DUP1 ISZERO PUSH2 0x10 JUMPI PUSH1 0x0 DUP1 REVERT JUMPDEST POP PUSH2 0x1D1 DUP1 PUSH2 0x20 PUSH1 0x0 CODECOPY PUSH1 0x0 RETURN INVALID PUSH1 0x80 PUSH1 0x40 MSTORE CALLVALUE DUP1 ISZERO PUSH2 0x10 JUMPI PUSH1 0x0 DUP1 REVERT JUMPDEST POP PUSH1 0x4 CALLDATASIZE LT PUSH2 0x2B JUMPI PUSH1 0x0 CALLDATALOAD PUSH1 0xE0 SHR DUP1 PUSH4 0x94813DD1 EQ PUSH2 0x30 JUMPI JUMPDEST PUSH1 0x0 DUP1 REVERT JUMPDEST PUSH2 0x4A PUSH1 0x4 DUP1 CALLDATASIZE SUB DUP2 ADD SWAP1 PUSH2 0x45 SWAP2 SWAP1 PUSH2 0xD4 JUMP JUMPDEST PUSH2 0x4C JUMP JUMPDEST STOP JUMPDEST DUP1 DUP3 LT ISZERO PUSH2 0x95 JUMPI DUP2 DUP2 CALLER PUSH1 0x40 MLOAD PUSH32 0x281A4B7500000000000000000000000000000000000000000000000000000000 DUP2 MSTORE PUSH1 0x4 ADD PUSH2 0x8C SWAP4 SWAP3 SWAP2 SWAP1 PUSH2 0x164 JUMP JUMPDEST PUSH1 0x40 MLOAD DUP1 SWAP2 SUB SWAP1 REVERT JUMPDEST POP POP JUMP JUMPDEST PUSH1 0x0 DUP1 REVERT JUMPDEST PUSH1 0x0 DUP2 SWAP1 POP SWAP2 SWAP1 POP JUMP JUMPDEST PUSH2 0xB1 DUP2 PUSH2 0x9E JUMP JUMPDEST DUP2 EQ PUSH2 0xBC JUMPI PUSH1 0x0 DUP1 REVERT JUMPDEST POP JUMP JUMPDEST PUSH1 0x0 DUP2 CALLDATALOAD SWAP1 POP PUSH2 0xCE DUP2 PUSH2 0xA8 JUMP JUMPDEST SWAP3 SWAP2 POP POP JUMP JUMPDEST PUSH1 0x0 DUP1 PUSH1 0x40 DUP4 DUP6 SUB SLT ISZERO PUSH2 0xEB JUMPI PUSH2 0xEA PUSH2 0x99 JUMP JUMPDEST JUMPDEST PUSH1 0x0 PUSH2 0xF9 DUP6 DUP3 DUP7 ADD PUSH2 0xBF JUMP JUMPDEST SWAP3 POP POP PUSH1 0x20 PUSH2 0x10A DUP6 DUP3 DUP7 ADD PUSH2 0xBF JUMP JUMPDEST SWAP2 POP POP SWAP3 POP SWAP3 SWAP1 POP JUMP JUMPDEST PUSH2 0x11D DUP2 PUSH2 0x9E JUMP JUMPDEST DUP3 MSTORE POP POP JUMP JUMPDEST PUSH1 0x0 PUSH20 0xFFFFFFFFFFFFFFFFFFFFFFFFFFFFFFFFFFFFFFFF DUP3 AND SWAP1 POP SWAP2 SWAP1 POP JUMP JUMPDEST PUSH1 0x0 PUSH2 0x14E DUP3 PUSH2 0x123 JUMP JUMPDEST SWAP1 POP SWAP2 SWAP1 POP JUMP JUMPDEST PUSH2 0x15E DUP2 PUSH2 0x143 JUMP JUMPDEST DUP3 MSTORE POP POP JUMP JUMPDEST PUSH1 0x0 PUSH1 0x60 DUP3 ADD SWAP1 POP PUSH2 0x179 PUSH1 0x0 DUP4 ADD DUP7 PUSH2 0x114 JUMP JUMPDEST PUSH2 0x186 PUSH1 0x20 DUP4 ADD DUP6 PUSH2 0x114 JUMP JUMPDEST PUSH2 0x193 PUSH1 0x40 DUP4 ADD DUP5 PUSH2 0x155 JUMP JUMPDEST SWAP5 SWAP4 POP POP POP POP JUMP INVALID LOG2 PUSH5 0x6970667358 0x22 SLT KECCAK256 DUP8 ISZERO CALLER 0xDE 0xED 0x5C 0xD6 0x2F SSTORE 0xD5 LOG3 0x21 TIMESTAMP CALLDATACOPY PUSH12 0x60815DFC3B4B04AE4C26342B PUSH32 0x82FE3E1864736F6C634300081100330000000000000000000000000000000000 "
		},
		"gasEstimates": {
			"creation": {
				"codeDepositCost": "93000",
				"executionCost": "141",
				"totalCost": "93141"
			},
			"external": {
				"balance(uint256,uint256)": "infinite"
			}
		},
		"methodIdentifiers": {
			"balance(uint256,uint256)": "94813dd1"
		}
	},
	"abi": [
		{
			"inputs": [
				{
					"internalType": "uint256",
					"name": "amount",
					"type": "uint256"
				},
				{
					"internalType": "uint256",
					"name": "value",
					"type": "uint256"
				},
				{
					"internalType": "address",
					"name": "caller",
					"type": "address"
				}
			],
			"name": "WrongAmount",
			"type": "error"
		},
		{
			"inputs": [
				{
					"internalType": "uint256",
					"name": "amount",
					"type": "uint256"
				},
				{
					"internalType": "uint256",
					"name": "value",
					"type": "uint256"
				}
			],
			"name": "balance",
			"outputs": [],
			"stateMutability": "view",
			"type": "function"
		}
	]
}