{
	"data": {
		"bytecode": {
			"linkReferences": {},
			"object": "608060405234801561001057600080fd5b5061025a806100206000396000f3fe60806040526004361061001e5760003560e01c80636b55e99114610023575b600080fd5b61003d60048036038101906100389190610127565b61003f565b005b8073ffffffffffffffffffffffffffffffffffffffff166108fc349081150290604051600060405180830381858888f19350505050158015610085573d6000803e3d6000fd5b507fddf252ad1be2c89b69c2b068fc378daa952ba7f163c4a11628f55a4df523b3ef3382346040516100b9939291906101ed565b60405180910390a150565b600080fd5b600073ffffffffffffffffffffffffffffffffffffffff82169050919050565b60006100f4826100c9565b9050919050565b610104816100e9565b811461010f57600080fd5b50565b600081359050610121816100fb565b92915050565b60006020828403121561013d5761013c6100c4565b5b600061014b84828501610112565b91505092915050565b600061015f826100c9565b9050919050565b61016f81610154565b82525050565b6000819050919050565b600061019a610195610190846100c9565b610175565b6100c9565b9050919050565b60006101ac8261017f565b9050919050565b60006101be826101a1565b9050919050565b6101ce816101b3565b82525050565b6000819050919050565b6101e7816101d4565b82525050565b60006060820190506102026000830186610166565b61020f60208301856101c5565b61021c60408301846101de565b94935050505056fea2646970667358221220cc67190b264b369ffb5589b16df16c8e244653e77c28bff191f8aeac48038a8464736f6c63430008110033",
			"opcodes": "PUSH1 0x80 PUSH1 0x40 MSTORE CALLVALUE DUP1 ISZERO PUSH2 0x10 JUMPI PUSH1 0x0 DUP1 REVERT JUMPDEST POP PUSH2 0x25A DUP1 PUSH2 0x20 PUSH1 0x0 CODECOPY PUSH1 0x0 RETURN INVALID PUSH1 0x80 PUSH1 0x40 MSTORE PUSH1 0x4 CALLDATASIZE LT PUSH2 0x1E JUMPI PUSH1 0x0 CALLDATALOAD PUSH1 0xE0 SHR DUP1 PUSH4 0x6B55E991 EQ PUSH2 0x23 JUMPI JUMPDEST PUSH1 0x0 DUP1 REVERT JUMPDEST PUSH2 0x3D PUSH1 0x4 DUP1 CALLDATASIZE SUB DUP2 ADD SWAP1 PUSH2 0x38 SWAP2 SWAP1 PUSH2 0x127 JUMP JUMPDEST PUSH2 0x3F JUMP JUMPDEST STOP JUMPDEST DUP1 PUSH20 0xFFFFFFFFFFFFFFFFFFFFFFFFFFFFFFFFFFFFFFFF AND PUSH2 0x8FC CALLVALUE SWAP1 DUP2 ISZERO MUL SWAP1 PUSH1 0x40 MLOAD PUSH1 0x0 PUSH1 0x40 MLOAD DUP1 DUP4 SUB DUP2 DUP6 DUP9 DUP9 CALL SWAP4 POP POP POP POP ISZERO DUP1 ISZERO PUSH2 0x85 JUMPI RETURNDATASIZE PUSH1 0x0 DUP1 RETURNDATACOPY RETURNDATASIZE PUSH1 0x0 REVERT JUMPDEST POP PUSH32 0xDDF252AD1BE2C89B69C2B068FC378DAA952BA7F163C4A11628F55A4DF523B3EF CALLER DUP3 CALLVALUE PUSH1 0x40 MLOAD PUSH2 0xB9 SWAP4 SWAP3 SWAP2 SWAP1 PUSH2 0x1ED JUMP JUMPDEST PUSH1 0x40 MLOAD DUP1 SWAP2 SUB SWAP1 LOG1 POP JUMP JUMPDEST PUSH1 0x0 DUP1 REVERT JUMPDEST PUSH1 0x0 PUSH20 0xFFFFFFFFFFFFFFFFFFFFFFFFFFFFFFFFFFFFFFFF DUP3 AND SWAP1 POP SWAP2 SWAP1 POP JUMP JUMPDEST PUSH1 0x0 PUSH2 0xF4 DUP3 PUSH2 0xC9 JUMP JUMPDEST SWAP1 POP SWAP2 SWAP1 POP JUMP JUMPDEST PUSH2 0x104 DUP2 PUSH2 0xE9 JUMP JUMPDEST DUP2 EQ PUSH2 0x10F JUMPI PUSH1 0x0 DUP1 REVERT JUMPDEST POP JUMP JUMPDEST PUSH1 0x0 DUP2 CALLDATALOAD SWAP1 POP PUSH2 0x121 DUP2 PUSH2 0xFB JUMP JUMPDEST SWAP3 SWAP2 POP POP JUMP JUMPDEST PUSH1 0x0 PUSH1 0x20 DUP3 DUP5 SUB SLT ISZERO PUSH2 0x13D JUMPI PUSH2 0x13C PUSH2 0xC4 JUMP JUMPDEST JUMPDEST PUSH1 0x0 PUSH2 0x14B DUP5 DUP3 DUP6 ADD PUSH2 0x112 JUMP JUMPDEST SWAP2 POP POP SWAP3 SWAP2 POP POP JUMP JUMPDEST PUSH1 0x0 PUSH2 0x15F DUP3 PUSH2 0xC9 JUMP JUMPDEST SWAP1 POP SWAP2 SWAP1 POP JUMP JUMPDEST PUSH2 0x16F DUP2 PUSH2 0x154 JUMP JUMPDEST DUP3 MSTORE POP POP JUMP JUMPDEST PUSH1 0x0 DUP2 SWAP1 POP SWAP2 SWAP1 POP JUMP JUMPDEST PUSH1 0x0 PUSH2 0x19A PUSH2 0x195 PUSH2 0x190 DUP5 PUSH2 0xC9 JUMP JUMPDEST PUSH2 0x175 JUMP JUMPDEST PUSH2 0xC9 JUMP JUMPDEST SWAP1 POP SWAP2 SWAP1 POP JUMP JUMPDEST PUSH1 0x0 PUSH2 0x1AC DUP3 PUSH2 0x17F JUMP JUMPDEST SWAP1 POP SWAP2 SWAP1 POP JUMP JUMPDEST PUSH1 0x0 PUSH2 0x1BE DUP3 PUSH2 0x1A1 JUMP JUMPDEST SWAP1 POP SWAP2 SWAP1 POP JUMP JUMPDEST PUSH2 0x1CE DUP2 PUSH2 0x1B3 JUMP JUMPDEST DUP3 MSTORE POP POP JUMP JUMPDEST PUSH1 0x0 DUP2 SWAP1 POP SWAP2 SWAP1 POP JUMP JUMPDEST PUSH2 0x1E7 DUP2 PUSH2 0x1D4 JUMP JUMPDEST DUP3 MSTORE POP POP JUMP JUMPDEST PUSH1 0x0 PUSH1 0x60 DUP3 ADD SWAP1 POP PUSH2 0x202 PUSH1 0x0 DUP4 ADD DUP7 PUSH2 0x166 JUMP JUMPDEST PUSH2 0x20F PUSH1 0x20 DUP4 ADD DUP6 PUSH2 0x1C5 JUMP JUMPDEST PUSH2 0x21C PUSH1 0x40 DUP4 ADD DUP5 PUSH2 0x1DE JUMP JUMPDEST SWAP5 SWAP4 POP POP POP POP JUMP INVALID LOG2 PUSH5 0x6970667358 0x22 SLT KECCAK256 0xCC PUSH8 0x190B264B369FFB55 DUP10 0xB1 PUSH14 0xF16C8E244653E77C28BFF191F8AE 0xAC BASEFEE SUB DUP11 DUP5 PUSH5 0x736F6C6343 STOP ADDMOD GT STOP CALLER "
		},
		"gasEstimates": {
			"creation": {
				"codeDepositCost": "120400",
				"executionCost": "165",
				"totalCost": "120565"
			},
			"external": {
				"transferEther(address)": "infinite"
			}
		},
		"methodIdentifiers": {
			"transferEther(address)": "6b55e991"
		}
	},
	"abi": [
		{
			"anonymous": false,
			"inputs": [
				{
					"indexed": false,
					"internalType": "address",
					"name": "from",
					"type": "address"
				},
				{
					"indexed": false,
					"internalType": "address",
					"name": "to",
					"type": "address"
				},
				{
					"indexed": false,
					"internalType": "uint256",
					"name": "amount",
					"type": "uint256"
				}
			],
			"name": "Transfer",
			"type": "event"
		},
		{
			"inputs": [
				{
					"internalType": "address payable",
					"name": "_receiver",
					"type": "address"
				}
			],
			"name": "transferEther",
			"outputs": [],
			"stateMutability": "payable",
			"type": "function"
		}
	]
}